:100000000C9462000C948A000C948A000C948A0070
:100010000C948A000C948A000C948A000C948A0038
:100020000C948A000C948A000C948A000C948A0028
:100030000C948A000C948A000C948A000C948A0018
:100040000C947D020C948A000C9402030C94DC0244
:100050000C948A000C948A000C948A000C948A00F8
:100060000C94BA030C948A000000000024002700BE
:100070002A0000000000250028002B0000000008D6
:10008000000201000003040700000000000000005F
:1000900000000000230026002900040404040404D6
:1000A0000404020202020202030303030303010227
:1000B00004081020408001020408102001020408F6
:1000C00010209C0C11241FBECFEFD8E0DEBFCDBFA7
:1000D00011E0A0E0B1E0E8E1FFE102C005900D927F
:1000E000A637B107D9F723E0A6E7B1E001C01D921A
:1000F000AE32B207E1F710E0C2E6D0E004C02197CB
:10010000FE010E94430DC136D107C9F70E9489093B
:100110000C948A0F0C9400008091310290E02091A1
:100120003202821B91090895CF92DF92EF92FF92E3
:100130000F931F93CF93DF936C017A018B01C0E083
:10014000D0E0CE15DF0589F0D8016D918D01D60183
:10015000ED91FC910190F081E02DC6010995892B6C
:1001600011F47E0102C02196ECCFC701DF91CF913F
:100170001F910F91FF90EF90DF90CF900895FC01B9
:10018000918D828D981761F0828DDF01A80FB11DCE
:100190005D968C91928D9F5F9F73928F90E00895F2
:1001A0008FEF9FEF0895FC01918D828D981731F0AC
:1001B000828DE80FF11D858D90E008958FEF9FEF00
:1001C0000895FC01918D228D892F90E0805C9F4FD6
:1001D000821B91098F739927089583E592E00E940D
:1001E000E10021E0892B09F420E0822F0895FC0131
:1001F000848DDF01A80FB11DA35ABF4F2C91848DB0
:1002000090E001968F739927848FA689B7892C93E4
:10021000A089B1898C9180648C93938D848D98137F
:1002200006C00288F389E02D80818F7D8083089548
:10023000EF92FF920F931F93CF93DF93EC0181E036
:10024000888F9B8D8C8D981305C0E889F9898081F2
:1002500085FD24C0F62E0B8D10E00F5F1F4F0F732E
:100260001127E02E8C8DE8120CC00FB607FCFACFD8
:10027000E889F989808185FFF5CFCE010E94F700DA
:10028000F1CF8B8DFE01E80FF11DE35AFF4FF08295
:100290000B8FEA89FB898081806207C0EE89FF8924
:1002A0006083E889F98980818064808381E090E0BF
:1002B000DF91CF911F910F91FF90EF900895CF9311
:1002C000DF93EC01888D8823C9F0EA89FB8980815E
:1002D00085FD05C0A889B9898C9186FD0FC00FB630
:1002E00007FCF5CF808185FFF2CFA889B9898C9171
:1002F00085FFEDCFCE010E94F700E7CFDF91CF91D0
:10030000089580E090E0892B29F00E94ED00811192
:100310000C94000008950895E0913202809131021A
:10032000E81730F4F0E0ED5CFD4F808190E0089537
:100330008FEF9FEF089590913202809131029817CC
:1003400050F4E92FF0E0ED5CFD4F208130E09F5F3D
:100350009093320202C02FEF3FEFC901089585ED5F
:100360008093BC008091BC0084FDFCCF10923002D1
:10037000089540919801262F30E0240F311D21323D
:100380003105DCF4209130022430C9F4FC0180E016
:1003900090E0861758F4309198012191DC01AA5819
:1003A000BE4FA30FB11D2C930196F3CF80919801FE
:1003B000680F6093980180E0089581E0089582E0DD
:1003C0000895CF92DF92EF92FF920F931F93CF93F6
:1003D000DF937C01262F972F8A018091E6018823E5
:1003E00091F0C62FD72F6E01C40ED51ECC15DD059A
:1003F00071F06991D701ED91FC910190F081E02DB0
:10040000C7010995F3CF642F822F0E94B901C8015B
:10041000DF91CF911F910F91FF90EF90DF90CF90E0
:100420000895CF93DF931F92CDB7DEB769832091F4
:10043000E6012223D1F020910902203240F021E090
:1004400030E0FC013383228380E090E015C080918E
:10045000E701E82FF0E0E851FE4F998190838F5F2C
:100460008093E7018093090205C061E0CE01019607
:100470000E94B90181E090E00F90DF91CF91089543
:10048000CF93DF93EC0160E08E810E941D0761E055
:100490008E810E941D0760E08E810E941D078BE8FF
:1004A00091E00197F1F7DF91CF9108950E94850FB8
:1004B0003FB7F8948091DE019091DF01A091E001B7
:1004C000B091E10126B5A89B05C02F3F19F0019618
:1004D000A11DB11D3FBFBA2FA92F982F8827820FCA
:1004E000911DA11DB11DBC01CD0142E0660F771F1A
:1004F000881F991F4A95D1F708951F920F920FB642
:100500000F9211242F933F938F939F93AF93BF9399
:100510008091E2019091E301A091E401B091E501A5
:100520003091DD0123E0230F2D3720F40196A11D2A
:10053000B11D05C026E8230F0296A11DB11D209311
:10054000DD018093E2019093E301A093E401B09375
:10055000E5018091DE019091DF01A091E001B09171
:10056000E1010196A11DB11D8093DE019093DF0191
:10057000A093E001B093E101BF91AF919F918F9162
:100580003F912F910F900FBE0F901F9018956115FE
:10059000710579F0FB0101900020E9F73197AF0177
:1005A000461B570BDC01ED91FC910280F381E02D9D
:1005B000099480E090E008951F920F920FB60F9279
:1005C00011242F933F934F935F936F937F938F9358
:1005D0009F93AF93BF93EF93FF9383E592E00E94C5
:1005E000F700FF91EF91BF91AF919F918F917F9114
:1005F0006F915F914F913F912F910F900FBE0F9090
:100600001F9018951F920F920FB60F9211242F93DF
:100610008F939F93EF93FF93E0916302F0916402B5
:100620008081E0916902F0916A0282FD12C090819E
:1006300080916C028F5F8F7320916D02821751F051
:10064000E0916C02F0E0ED5AFD4F958F80936C02C3
:1006500001C08081FF91EF919F918F912F910F9019
:100660000FBE0F901F901895CF92DF92EF92FF92DE
:100670000F931F93CF93DF937C016C0187E0C80E2B
:10068000D11CC0E0D0E0062F10E0B8010C2E02C053
:10069000759567950A94E2F76170F60181916F0193
:1006A0000E941D072196C430D10579F7C701DF915B
:1006B000CF911F910F91FF90EF90DF90CF900C940E
:1006C0004002CF92DF92EF92FF920F931F93CF934E
:1006D000DF93EC01F62E642F8C810E941D078D8123
:1006E0008F3F19F060E00E941D078F850F2D10E0ED
:1006F00084FF25C06E0187E0C80ED11CE12CF12CCF
:10070000B8010E2C02C0759567950A94E2F76170E6
:10071000F60181916F010E941D07FFEFEF1AFF0A9A
:1007200088E0E816F10461F7CE01DF91CF911F91C7
:100730000F91FF90EF90DF90CF900C944002B801A2
:1007400084E0759567958A95E1F7CE010E943403A0
:100750006F2DCE01DF91CF911F910F91FF90EF9000
:10076000DF90CF900C94340341E00E94610381E05C
:1007700090E008951F920F920FB60F9211242F93BD
:100780003F934F935F936F937F938F939F93AF9319
:10079000BF93EF93FF938091B900887F803609F46F
:1007A0009CC068F5883209F45BC090F4803109F48C
:1007B00054C038F4882309F4F6C0883009F44DC0D9
:1007C000F6C0883109F44CC0803209F45DC0EFC036
:1007D000803409F468C048F4803309F455C0883384
:1007E00009F0E5C080932E02D8C0803509F44FC0CF
:1007F000883509F45DC0883409F0D9C0D6C088397D
:1008000009F4C7C0A8F4883709F467C038F48836FB
:1008100009F463C0803709F460C0C9C0883809F49E
:10082000B8C0803909F45FC0803809F0C0C05BC02F
:10083000803B09F486C038F4803A09F466C0883AEF
:1008400009F47FC0B4C0803C09F4A7C0883C09F417
:10085000A4C0883B09F48AC0AAC080912B0210C0B2
:1008600090912D0280912C02981770F5E0912D0245
:1008700081E08E0F80932D02F0E0E65FFD4F8081D6
:100880008093BB0085EC86C080932E028EC0E091E1
:100890002D0281E08E0F80932D028091BB00F0E04D
:1008A000E65FFD4F808390912D0280912C026EC0F7
:1008B000E0912D0281E08E0F80932D028091BB008C
:1008C000F0E0E65FFD4F808380912F0281116DC0C3
:1008D00081E080932A0284EA61C083E08093300241
:1008E0001092BC01CFCF8091BC01803208F051C082
:1008F000E091BC0181E08E0F8093BC018091BB0030
:10090000F0E0E456FE4F8083BDCF85EC8093BC00C1
:10091000109230028091BC01803230F4E091BC0131
:10092000F0E0E456FE4F10826091BC0170E0E0916F
:100930009A01F0919B018CE991E009951092BC011C
:1009400036C084E080933002109299011092980191
:10095000E0919601F091970109958091980181119C
:1009600005C081E08093980110927601E091990191
:1009700081E08E0F80939901F0E0EA58FE4F80816C
:100980008093BB009091990180919801981708F489
:1009900079CF85E88093BC000AC085EC8093BC00C9
:1009A0001092300204C010922E020E94AF01FF91FB
:1009B000EF91BF91AF919F918F917F916F915F91D7
:1009C0004F913F912F910F900FBE0F901F90189550
:1009D0008F929F92AF92BF92CF92DF92EF92FF924F
:1009E000CF93DF93A0912303882311F03A2F01C006
:1009F00030E08091240390E0880F991F80579F4F2B
:100A0000C0902903D0902A03E0902B03F0902C0390
:100A100040E050E0BA01FC01C591D49128812A231D
:100A200023130FC04A015B012FEF821A920AA20A18
:100A3000B20A4C155D056E057F0538F4B501A401B9
:100A4000EACF342F252FCB0104C030E020E080E036
:100A500090E0632F722FDF91CF91FF90EF90DF90A6
:100A6000CF90BF90AF909F908F900895909130025B
:100A70009111FCCF613208F060E291E09093300276
:100A800090932F022FEF20932E0210922D02260F0B
:100A900020932C0290932B0290912B02880F892B8C
:100AA00080932B0280912A02813061F410922A02F5
:100AB00080912B028093BB008091BC0083FDF8CF16
:100AC00085EC01C085EE8093BC00809130028130BE
:100AD000E1F380912D02861710F460912D02AAE0B7
:100AE000B2E023E332E0F9018E2F821B861718F45F
:100AF0008D918193F9CF1092320260933102862F4B
:100B000008952091090290910802213208F04AC00C
:100B1000809130028111FCCF32E03093300231E01D
:100B200030932F023FEF30932E0210922D0220932C
:100B30002C02A8EEB1E04AE052E0FA013E2F341B4D
:100B4000321718F43D913193F9CF10922B02209176
:100B50002B02990F922B90932B0290912A029130A5
:100B600061F410922A0290912B029093BB00909115
:100B7000BC0093FDF8CF95EC01C095EE9093BC00BE
:100B8000909130029230E1F390912E029F3F79F0E4
:100B900080912E02803241F080912E02803331F01C
:100BA00084E005C081E003C082E001C083E01092D0
:100BB000E701109209021092E6010895682F80EF74
:100BC00092E00C9411028F929F92AF92BF920F937A
:100BD0001F93CF93DF93CDB7DEB7A1970FB6F894ED
:100BE000DEBF0FBECDBF19A2423008F44AE08E012D
:100BF0000F5D1F4F842E912CA12CB12CA5019401C7
:100C00000E94210DE62FB901CA0101501109EA30F5
:100C100014F4E05D01C0E95CD801EC93232B242B94
:100C2000252B61F7B80183E592E00E94C702A196E7
:100C30000FB6F894DEBF0FBECDBFDF91CF911F91ED
:100C40000F91BF90AF909F908F9008954F925F92B9
:100C50006F927F928F929F92AF92BF92CF92DF92CC
:100C6000EF92FF926B017C01B42E9B01AC010E94BC
:100C7000800F882319F06AE671E027C0260137014A
:100C8000E89477F82FEF3FEF4FE75FE7C301B2013A
:100C90000E94800F81110DC02FEF3FEF4FE75FE7FC
:100CA000C301B2010E94B60D18161CF46EE671E085
:100CB0000CC02FEF3FEF4FE75FE4C701B6010E9482
:100CC0000E0F181694F462E771E083E592E0FF904E
:100CD000EF90DF90CF90BF90AF909F908F907F90DC
:100CE0006F905F904F900C94C7022FEF3FEF4FE74C
:100CF0005FECC701B6010E94B60D87FDE4CF20E08E
:100D000030E0A901C701B6010E94B60D87FF11C0EE
:100D1000E0915302F09154020190F081E02D6DE2D8
:100D200083E592E009954C01F7FAF094F7F8F09416
:100D300002C0812C912CA12C60E070E080E09FE348
:100D4000AB1441F020E030E040E251E40E94BB0DE2
:100D5000A394F6CF9B01AC01C701B6010E944A0DD6
:100D60002B013C010E942D0E6B017C010E945C0E48
:100D70009B01AC01C301B2010E94490D2B013C0152
:100D80004AE0C701B6010E94E3057C01E80CF91CAA
:100D9000BB2069F0E0915302F09154020190F08180
:100DA000E02D6EE283E592E00995E80EF91EDB2C5A
:100DB000DD2021F120E030E040E251E4C301B20146
:100DC0000E94130F2B013C010E942D0E4B01A12C00
:100DD000B12C4AE0C501B4010E94E305E80EF91EFA
:100DE000C501B4010E945C0E9B01AC01C301B201BC
:100DF0000E94490D2B013C01DA94DACFC701FF9024
:100E0000EF90DF90CF90BF90AF909F908F907F90AA
:100E10006F905F904F900895CF93DF9342E00E94D0
:100E20002606EC016EE371E083E592E00E94C702C2
:100E30008C0F9D1FDF91CF91089590E0FC01E45845
:100E4000FF4F3491FC01E255FF4F2491FC01E6561F
:100E5000FF4FE491EE2309F43BC0332339F13330E3
:100E600091F038F43130A9F0323001F584B58F7D3E
:100E700012C0373091F03830A1F03430B9F480919D
:100E800080008F7D03C0809180008F7780938000E9
:100E90000DC084B58F7784BD09C08091B0008F7775
:100EA00003C08091B0008F7D8093B000F0E0EE0F22
:100EB000FF1FEE58FF4FA591B4918FB7F894EC91B6
:100EC000611103C020952E2301C02E2B2C938FBFC0
:100ED0000895CF93DF9390E0FC01E255FF4F2491FA
:100EE000FC01E656FF4F8491882361F190E0880F62
:100EF000991FFC01E859FF4FC591D491FC01EE58B0
:100F0000FF4FA591B491611109C09FB7F8948881F2
:100F1000209582238883EC912E230BC0623061F4EC
:100F20009FB7F8943881822F809583238883EC9132
:100F30002E2B2C939FBF06C08FB7F894E8812E2BE1
:100F400028838FBFDF91CF910895EF92FF920F9387
:100F50001F93CF93DF93EC01623018F08F85886088
:100F60008F876B8B1C8A80E48D8B80E18E8B80E574
:100F70008F8B61E08C810E9469078D818F3F19F012
:100F800061E00E94690761E08E810E9469077E012D
:100F900087E0E80EF11C00E010E08F8584FD03C0BF
:100FA00084E090E002C088E090E0081719074CF454
:100FB00061E0F70181917F010E9469070F5F1F4F78
:100FC000ECCF8BE39DE00197F1F760E08C810E940C
:100FD0001D0760E08E810E941D078D818F3F19F0F3
:100FE00060E00E941D076F8564FD1DC063E0CE01B7
:100FF0000E9434030BE416E4C8010197F1F763E0A3
:10100000CE010E943403C8010197F1F763E0CE01DD
:101010000E94340383E592E00197F1F762E0CE018C
:101020000E94340319C0606240E0CE010E94610357
:101030008BE496E40197F1F76F85606240E0CE01A2
:101040000E94610383E592E00197F1F76F8560628A
:1010500040E0CE010E9461036F85606240E0CE01F6
:101060000E94610384E0888B40E06CE0CE010E9426
:10107000610340E061E0CE010E9461038BE39FE1E8
:101080000197F1F782E0898B40E066E0CE01DF91C5
:10109000CF911F910F91FF90EF900C9461038F926D
:1010A0009F92AF92BF92CF92DF92EF92FF926B012D
:1010B0007C010E9458024B015C01C114D104E1047F
:1010C000F104F1F00E945802DC01CB018819990962
:1010D000AA09BB09883E9340A105B10570F321E040
:1010E000C21AD108E108F10888EE880E83E0981E44
:1010F000A11CB11CC114D104E104F10419F7DDCF26
:10110000FF90EF90DF90CF90BF90AF909F908F9027
:101110000895CF92DF92EF92FF920F931F93CF9398
:10112000DF93CDB7DEB7C054D1400FB6F894DEBF21
:101130000FBECDBF2FB7F8948091E2019091E301EB
:10114000A091E401B091E5012FBF4091250350919A
:10115000260360912703709128038C019D01041BD5
:10116000150B260B370BB901A801403D574061050F
:10117000710518F480912D03BCC0809325039093D2
:101180002603A0932703B093280310922003109204
:101190001F0310921E0310921D0310921C0361E0A6
:1011A000809121030E941D076AEF70E080E090E0CB
:1011B0000E944F0861E0809121030E94690760E06E
:1011C000809121030E941D0764E170E080E090E0BF
:1011D0000E944F08F89461E0809121030E941D074E
:1011E0008BE990E00197F1F762E0809121030E9482
:1011F000690783E290E00197F1F780E00E94E8043C
:10120000672B682B692B21F410922D0378943EC034
:1012100081E00E94E804672B682B692BA9F38E01FB
:101220000F5F1F4F6E012FEBC21A2EEFD20A78010B
:1012300080E00E94E804F7016083718382839383D6
:1012400081E00E94E804F7016483758386839783B5
:10125000F8E0EF0EF11CEC14FD0451F7789420E057
:1012600030E0F8014081518162817381C480D58072
:10127000E680F780411551056105710529F0C1141B
:10128000D104E104F10421F410922D0380E031C077
:10129000F90183E0F595E7958A95E1F7E45EFC4F67
:1012A0008081880F4C155D056E057F0508F481600F
:1012B00080832F5F3F4F085F1F4F2832310589F62B
:1012C0002091200330E040911C0380911D0390E0A9
:1012D000840F911D40911E03840F911D40911F03A7
:1012E000840F911D99272817390771F681E08093A3
:1012F0002D03C05CDE4F0FB6F894DEBF0FBECDBF2E
:10130000DF91CF911F910F91FF90EF90DF90CF90E1
:101310000895CF93DF9300D01F92CDB7DEB77894B6
:1013200084B5826084BD84B5816084BD85B58260EA
:1013300085BD85B5816085BD80916E00816080939B
:101340006E00109281008091810082608093810004
:101350008091810081608093810080918000816014
:10136000809380008091B10084608093B10080916F
:10137000B00081608093B00080917A008460809397
:101380007A0080917A00826080937A0080917A005E
:10139000816080937A0080917A00806880937A00DF
:1013A0001092C100E0916302F091640282E08083B8
:1013B000E0915F02F09160021082E0916102F09191
:1013C00062028FEC808310926B02E0916702F091D1
:1013D000680286E08083E0916502F0916602808178
:1013E00080618083E0916502F0916602808188606F
:1013F0008083E0916502F09166028081806880833D
:10140000E0916502F091660280818F7D808361E0CA
:101410008FE00E94690762E0809121030E946907C2
:1014200080E398EFAFEFBFEF8093250390932603FF
:10143000A0932703B0932803109232021092310236
:101440001092E7011092090210923002FF24F394E7
:10145000F0922F0210922A0261E082E10E941D07A1
:1014600061E083E10E941D078091B9008E7F809327
:10147000B9008091B9008D7F8093B90088E4809392
:10148000B80085E48093BC00F092E60130E4E32EDE
:10149000E09208021092E701109209028EEF90E0AC
:1014A0000E94DE050E9481056FE070E080E090E020
:1014B0000E944F08F092E601E09208021092E701C4
:1014C0001092090287EE90E00E94DE050E948105DD
:1014D00061E070E080E490E00E94360580EF92E0E9
:1014E0000E949B01029769F068E271E083E592E057
:1014F0000E94C7026EE371E083E592E00E94C7029A
:10150000FFCF62E08CEF92E00E94A50761E471E0FA
:101510008CEF92E00E94C70260ED77E080E090E0FF
:101520000E944F0828EE822E23E0922EA12CB12C8F
:1015300060E08FE00E941D0760ED77E080E090E0C2
:101540000E944F0861E08FE00E941D072FB7F894BA
:101550006091E2017091E3018091E4019091E501D5
:101560002FBFA50194010E94210DCA01B9014AE0D3
:101570000E94E3056EE371E083E592E00E94C702FA
:101580000E9489088823A9F1809122038B3039F1C8
:1015900080F18551823068F560911C0370E080E035
:1015A00090E00E945C0E20E030E040E853E40E94AE
:1015B000130F6B017C0160911D0370E080E090E0EF
:1015C0000E945E0E9B01AC01C701B6010E944A0D4C
:1015D0002DEC3CEC4CEC5DE30E94130F07C06091D6
:1015E0001C0370E080E090E00E945C0E6B017C01C7
:1015F00006C0C12CD12C90ECE92E9FE7F92EC092A9
:10160000CD01D092CE01E092CF01F092D0010E94A4
:1016100089088823D9F1809122038B3029F0B0F119
:101620008551823048F032C060911E0370E080E046
:1016300090E00E945C0E2EC020911E032983622F31
:101640006F7770E080E090E00E945E0E20E030E076
:1016500040E853E40E94130F2B013C0160911F03EB
:1016600070E080E090E00E945E0E9B01AC01C3013F
:10167000B2010E944A0D2DEC3CEC4CEC5DE30E9463
:10168000130FE981E7FF06C0905804C060E070E0E6
:1016900080EC9FE76093C9017093CA018093CB01EE
:1016A0009093CC016093D1017093D2018093D301C8
:1016B0009093D401C092BD01D092BE01E092BF01CF
:1016C000F092C0016AE471E083E592E00E94C702F3
:1016D0006091C9017091CA018091CB019091CC01B8
:1016E00042E00E94260663E571E083E592E00E94F5
:1016F000C7026091CD017091CE018091CF01909190
:10170000D0010E940C0781E08093E601F0E4F093A1
:1017100008021092E7011092090285EE90E00E9403
:10172000DE050E94810562E370E080E090E00E94A7
:101730004F0863E070E080E490E00E9436059091ED
:101740003102809132029817F1F380EF92E00E940B
:101750009B018B831A8280EF92E00E949B01EA80BA
:10176000FB80E82AF92A80EF92E00E949B01B701F2
:1017700080E090E00E945C0E20E030E04AEF52E40E
:101780000E94130F20E030E040E857E30E94130F5F
:1017900020E030E040EC50E40E94490D2B013C0178
:1017A0006093CD017093CE018093CF019093D001CF
:1017B00081E08093E60120E4209308021092E70183
:1017C0001092090283EE90E00E94DE050E948105DE
:1017D00062E370E080E090E00E944F0863E070E018
:1017E00080E490E00E9436059091310280913202AF
:1017F0009817F1F380EF92E00E949B01182F00E010
:1018000080EF92E00E949B017801E82AF92A80EF9C
:1018100092E00E949B01B70180E090E00E945C0E84
:1018200022E538EB4FE253E40E94130F20E030E052
:1018300040E857E30E94130F26E636E64BE352E4F6
:101840000E94490D6093C9017093CA018093CB0136
:101850009093CC016093D5017093D6018093D7010A
:101860009093D8014092C1015092C2016092C3018D
:101870007092C40168E571E083E592E00E94C702BE
:101880006091C9017091CA018091CB019091CC0106
:1018900042E00E94260663E571E083E592E00E9443
:1018A000C7026091CD017091CE018091CF019091DE
:1018B000D0010E940C0762E070E088E490E00E9492
:1018C000360580EF92E00E949B01F82E80EF92E0B7
:1018D0000E949B013F2C212CB101682B84E075955F
:1018E00067958A95E1F7072E000C880B990B0E94EB
:1018F0005E0E20E030E040E85DE30E94130F6B01D4
:101900007C016093D9017093DA018093DB0190939D
:10191000DC0161E671E083E592E00E94C702C70145
:10192000B6010E940C0764E670E080E090E00E943F
:101930004F080E948101FCCDE3E5F2E013821282A0
:1019400088EE93E0A0E0B0E084839583A683B7831C
:1019500024E031E03183208325EC30E03587248793
:1019600024EC30E03787268720EC30E0318B208B69
:1019700021EC30E0338B228B22EC30E0358B248B52
:1019800026EC30E0378B268B118E128E138E148E40
:10199000E0EFF2E01382128284839583A683B783FB
:1019A00084E191E091838083ACE1B3E08EE0159611
:1019B0008C93159786E116968C931697ECEBF0E0D6
:1019C000E4911796EC931797E8EAF0E0E491189603
:1019D000EC93189740E85EE360E070E01D964D934D
:1019E0005D936D937C935097E4E1F3E080E090E0A9
:1019F000A0E8BFEB84839583A683B783808391831C
:101A0000A283B383ECEFF2E01382128284E291E0CE
:101A10009183808382E084838FEF858383E0868354
:101A200084E0878385E0808786E0818787E08287FE
:101A30001386148615861686178661E0CF010C94EE
:101A4000A507A1E21A2EAA1BBB1BFD010DC0AA1FF0
:101A5000BB1FEE1FFF1FA217B307E407F50720F017
:101A6000A21BB30BE40BF50B661F771F881F991F92
:101A70001A9469F760957095809590959B01AC01DB
:101A8000BD01CF010895EE0FFF1F0590F491E02DE9
:101A900009945058BB27AA270E94610D0C94D40EBC
:101AA0000E94C60E38F00E94CD0E20F039F49F3F00
:101AB00019F426F40C94C30E0EF4E095E7FB0C9495
:101AC000BD0EE92F0E94E50E58F3BA17620773079F
:101AD0008407950720F079F4A6F50C94070F0EF40F
:101AE000E0950B2EBA2FA02D0B01B90190010C012E
:101AF000CA01A0011124FF27591B99F0593F50F446
:101B0000503E68F11A16F040A22F232F342F44279D
:101B1000585FF3CF469537952795A795F040539595
:101B2000C9F77EF41F16BA0B620B730B840BBAF065
:101B30009150A1F0FF0FBB1F661F771F881FC2F7D0
:101B40000EC0BA0F621F731F841F48F487957795E4
:101B50006795B795F7959E3F08F0B0CF9395880F9E
:101B600008F09927EE0F9795879508950E94990E92
:101B700008F481E008950E94CF0D0C94D40E0E94C9
:101B8000CD0E58F00E94C60E40F029F45F3F29F0B8
:101B90000C94BD0E51110C94080F0C94C30E0E94AE
:101BA000E50E68F39923B1F3552391F3951B550B7B
:101BB000BB27AA2762177307840738F09F5F5F4F20
:101BC000220F331F441FAA1FA9F335D00E2E3AF05F
:101BD000E0E832D091505040E695001CCAF72BD077
:101BE000FE2F29D0660F771F881FBB1F26173707C8
:101BF0004807AB07B0E809F0BB0B802DBF01FF27FA
:101C000093585F4F3AF09E3F510578F00C94BD0E0B
:101C10000C94080F5F3FE4F3983ED4F386957795D4
:101C20006795B795F7959F5FC9F7880F911D9695B2
:101C3000879597F90895E1E0660F771F881FBB1F0E
:101C4000621773078407BA0720F0621B730B840BBB
:101C5000BA0BEE1F88F7E09508950E94ED0E88F00C
:101C60009F5798F0B92F9927B751B0F0E1F0660F60
:101C7000771F881F991F1AF0BA95C9F714C0B130A1
:101C800091F00E94070FB1E008950C94070F672FA1
:101C9000782F8827B85F39F0B93FCCF386957795D0
:101CA0006795B395D9F73EF49095809570956195B9
:101CB0007F4F8F4F9F4F0895E89409C097FB3EF4E4
:101CC00090958095709561957F4F8F4F9F4F992389
:101CD000A9F0F92F96E9BB279395F6958795779507
:101CE0006795B795F111F8CFFAF4BB0F11F460FFC7
:101CF0001BC06F5F7F4F8F4F9F4F16C0882311F01F
:101D000096E911C0772321F09EE8872F762F05C032
:101D1000662371F096E8862F70E060E02AF09A95CD
:101D2000660F771F881FDAF7880F9695879597F9C2
:101D30000895990F0008550FAA0BE0E8FEEF16165C
:101D40001706E807F907C0F012161306E407F507AF
:101D500098F0621B730B840B950B39F40A2661F023
:101D6000232B242B252B21F408950A2609F4A140C6
:101D7000A6958FEF811D811D089597F99F6780E8D3
:101D800070E060E008959FEF80EC089500240A94CD
:101D90001616170618060906089500240A94121646
:101DA0001306140605060895092E0394000C11F479
:101DB000882352F0BB0F40F4BF2B11F460FF04C026
:101DC0006F5F7F4F8F4F9F4F089557FD9058440F7F
:101DD000551F59F05F3F71F04795880F97FB991F8A
:101DE00061F09F3F79F08795089512161306140647
:101DF000551FF2CF4695F1DF08C0161617061806D4
:101E0000991FF1CF86957105610508940895E894AE
:101E1000BB2766277727CB0197F908950E94990E73
:101E200008F48FEF08950E94260F0C94D40E0E94A0
:101E3000C60E38F00E94CD0E20F0952311F00C94C0
:101E4000BD0E0C94C30E11240C94080F0E94E50ED5
:101E500070F3959FC1F3950F50E0551F629FF001FD
:101E6000729FBB27F00DB11D639FAA27F00DB11D16
:101E7000AA1F649F6627B00DA11D661F829F22279F
:101E8000B00DA11D621F739FB00DA11D621F839F26
:101E9000A00D611D221F749F3327A00D611D231FFC
:101EA000849F600D211D822F762F6A2F11249F574A
:101EB00050409AF0F1F088234AF0EE0FFF1FBB1F4D
:101EC000661F771F881F91505040A9F79E3F51050C
:101ED00080F00C94BD0E0C94080F5F3FE4F3983E25
:101EE000D4F3869577956795B795F795E7959F5FB6
:101EF000C1F7FE2B880F911D9695879597F9089548
:101F00000E94990E880B990B089581E090E0F89457
:081F10000C948A0FF894FFCF36
:101F18000000000018019400E100BF00D3005F0139
:101F2800000000001102E1018C009B018C018B0173
:101F380000000000B4039400436F756C646E27744E
:101F48002066696E642073656E736F7221000D0AD6
:101F5800005374617274696E6700094448540954E7
:101F68003A200009483A20000948545509543A20B3
:101F78000009544D5009543A20006E616E00696E94
:061F880066006F766600A2
:00000001FF
