:100000000C940C030C9434030C9434030C943403BC
:100010000C9434030C9434030C9434030C94340384
:100020000C9434030C9434030C9434030C94340374
:100030000C9434030C9434030C9434030C94340364
:100040000C948C040C9434030C9436080C94D60451
:100050000C9434030C9434030C9434030C94340344
:100060000C9434030C943403130180321180642601
:100070000104B1020B14C0020800C10105C5024110
:1000800030C701C1EC011B3A8155642A040000000D
:100090007F2B040000009F3601C8B70100F2010069
:1000A000E08F282422312B0E53A5421618121A1461
:1000B0000332E18F171B1D0E14112CA53D09272DAE
:1000C000252B3C3213800A2980FF00000008000223
:1000D0000100000304070000000000000000000011
:1000E0000000250028002B0000000000240027004D
:1000F0002A000404040404040404020202020202AA
:1001000003030303030301020408102040800102DB
:100110000408102001020408102000000000003E26
:100120005B4F5B3E3E6B4F6B3E1C3E7C3E1C183C67
:100130007E3C181C577D571C1C5E7F5E1C00183CC3
:100140001800FFE7C3E7FF0018241800FFE7DBE70C
:10015000FF30483A060E2629792926407F050507F3
:10016000407F05253F5A3CE73C5A7F3E1C1C08084F
:100170001C1C3E7F14227F22145F5F005F5F060914
:100180007F017F006689956A606060606094A2FF6D
:10019000A29408047E040810207E201008082A1C5F
:1001A00008081C2A08081E101010100C1E0C1E0C2B
:1001B00030383E3830060E3E0E06000000000000CB
:1001C000005F00000007000700147F147F14242A3A
:1001D0007F2A12231308646236495620500008070C
:1001E0000300001C2241000041221C002A1C7F1C2D
:1001F0002A08083E0808008070300008080808082F
:10020000000060600020100804023E5149453E0095
:10021000427F400072494949462141494D331814F3
:10022000127F1027454545393C4A49493141211142
:1002300009073649494936464949291E0000140034
:100240000000403400000008142241141414141457
:10025000004122140802015909063E415D594E7CB5
:100260001211127C7F494949363E414141227F416A
:1002700041413E7F494949417F090909013E4141C8
:1002800051737F0808087F00417F41002040413FB3
:10029000017F081422417F404040407F021C027FC2
:1002A0007F0408107F3E4141413E7F090909063E17
:1002B0004151215E7F0919294626494949320301E6
:1002C0007F01033F4040403F1F2040201F3F4038F8
:1002D000403F631408146303047804036159494DD3
:1002E00043007F4141410204081020004141417F09
:1002F000040201020440404040400003070800207F
:10030000545478407F28444438384444442838447E
:1003100044287F385454541800087E090218A4A4B5
:100320009C787F0804047800447D40002040403DD4
:10033000007F1028440000417F40007C047804784E
:100340007C080404783844444438FC1824241818E1
:10035000242418FC7C08040408485454542404043D
:100360003F44243C4040207C1C2040201C3C40302A
:10037000403C44281028444C9090907C4464544C59
:1003800044000836410000007700000041360800B4
:1003900002010204023C2623263C1EA1A161123A5E
:1003A0004040207A385454555921555579412154AB
:1003B000547841215554784020545579400C1E52B0
:1003C0007212395555555939545454593955545454
:1003D000580000457C410002457D420001457C40BB
:1003E000F0292429F0F0282528F07C5455450020D8
:1003F00054547C547C0A097F493249494932324875
:10040000484832324A4848303A4141217A3A4240DB
:100410002078009DA0A07D39444444393D404040AF
:100420003D3C24FF2424487E4943662B2FFC2F2B80
:10043000FF0929F620C0887E090320545479410021
:1004400000447D413048484A32384040227A007AA0
:100450000A0A727D0D19317D2629292F282629297E
:10046000292630484D4020380808080808080808A0
:10047000382F10C8ACBA2F102834FA00007B0000C7
:1004800008142A142222142A1408AA005500AAAA21
:1004900055AA55AA000000FF00101010FF00141408
:1004A00014FF001010FF00FF1010F010F0141414CF
:1004B000FC001414F700FF0000FF00FF1414F40404
:1004C000FC141417101F10101F101F1414141F00F9
:1004D000101010F0000000001F101010101F10105E
:1004E0001010F010000000FF10101010101010106D
:1004F00010FF10000000FF140000FF00FF00001FAD
:1005000010170000FC04F414141710171414F4044A
:10051000F40000FF00F714141414141414F700F777
:10052000141414171410101F101F141414F41410A2
:1005300010F010F000001F101F0000001F1400003A
:1005400000FC140000F010F01010FF10FF14141441
:10055000FF141010101F00000000F010FFFFFFFF3D
:10056000FFF0F0F0F0F0FFFFFF0000000000FFFFE1
:100570000F0F0F0F0F38444438447C2A2A3E147E54
:1005800002020606027E027E026355494163384438
:10059000443C04407E201E2006027E020299A5E70C
:1005A000A5991C2A492A1C4C7201724C304A4D4DA7
:1005B000303048784830BC625A463D3E494949008F
:1005C0007E0101017E2A2A2A2A2A44445F444440AB
:1005D000514A444040444A51400000FF0103E0803A
:1005E000FF000008086B6B083612362436060F0928
:1005F0000F06000018180000001010003040FF0126
:1006000001001F01011E00191D1712003C3C3C3C5B
:100610000000000000007F0B11241FBECFEFD8E0C8
:10062000DEBFCDBF11E0A0E0B1E0ECE0FDE102C033
:1006300005900D92AC34B107D9F722E0ACE4B1E0FB
:1006400001C01D92A732B207E1F713E0CCE0D3E07E
:1006500004C02197FE010E94790ECB30D107C9F763
:100660000E94DA0B0C94840E0C94000090E0FC01C4
:10067000EA5FFE4F2491FC01EE50FF4F84918823E6
:1006800099F090E0880F991FFC01E851FF4FA59168
:10069000B491FC01E252FF4F859194918FB7F89489
:1006A000EC91E22BEC938FBF089590E0FC01E653B0
:1006B000FF4F3491FC01EA5FFE4F2491FC01EE50A4
:1006C000FF4FE491EE2309F43BC0332339F133307B
:1006D00091F038F43130A9F0323001F584B58F7DD6
:1006E00012C0373091F03830A1F03430B9F4809135
:1006F00080008F7D03C0809180008F778093800081
:100700000DC084B58F7784BD09C08091B0008F770C
:1007100003C08091B0008F7D8093B000F0E0EE0FB9
:10072000FF1FE252FF4FA591B4918FB7F894EC915F
:10073000611103C020952E2301C02E2B2C938FBF57
:1007400008953FB7F8948091EF019091F001A09146
:10075000F101B091F20126B5A89B05C02F3F19F019
:100760000196A11DB11D3FBFBA2FA92F982F882731
:10077000820F911DA11DB11DBC01CD0142E0660F8C
:10078000771F881F991F4A95D1F708958F929F92DE
:10079000AF92BF92CF92DF92EF92FF926B017C01FA
:1007A0000E94A1034B015C01C114D104E104F104D6
:1007B000F1F00E94A103DC01CB0188199909AA0973
:1007C000BB09883E9340A105B10570F321E0C21A30
:1007D000D108E108F10888EE880E83E0981EA11C7C
:1007E000B11CC114D104E104F10419F7DDCFFF906D
:1007F000EF90DF90CF90BF90AF909F908F90089533
:10080000CF92DF92EF92FF920F931F93CF93DF93DC
:100810006C017A018B01C0E0D0E0CE15DF0589F0D4
:10082000D8016D918D01D601ED91FC910190F0817F
:10083000E02DC6010995892B11F47E0102C0219695
:10084000ECCFC701DF91CF911F910F91FF90EF90F7
:10085000DF90CF900895AF92BF92CF92DF92EF9248
:10086000FF920F931F93CF93DF93EC016B015A011B
:1008700080910F02882399F0E091F301F091F40147
:10088000E0900D02F0900E020684F785E02D8A01BB
:100890009B01AE0160E070E083EF91E009958091EB
:1008A0000C02882369F0E0900A02F0900B028501A7
:1008B0009601AE0160E070E083EF91E00E943D0799
:1008C000DF91CF911F910F91FF90EF90DF90CF902C
:1008D000BF90AF9008958CE491E00E941E0521E046
:1008E000892B09F420E0822F08950E947F0E611564
:1008F000710579F0FB0101900020E9F73197AF0114
:10090000461B570BDC01ED91FC910280F381E02D39
:10091000099480E090E008951F920F920FB60F9215
:1009200011242F933F938F939F93AF93BF93809105
:10093000EB019091EC01A091ED01B091EE013091AD
:10094000EA0123E0230F2D3720F40196A11DB11DEC
:1009500005C026E8230F0296A11DB11D2093EA01D0
:100960008093EB019093EC01A093ED01B093EE0125
:100970008091EF019091F001A091F101B091F2010D
:100980000196A11DB11D8093EF019093F001A093FA
:10099000F101B093F201BF91AF919F918F913F917F
:1009A0002F910F900FBE0F901F9018951F920F92CE
:1009B0000FB60F9211242F933F934F935F936F9332
:1009C0007F938F939F93AF93BF93EF93FF938CE4A9
:1009D00091E00E946808FF91EF91BF91AF919F91C4
:1009E0008F917F916F915F914F913F912F910F90D8
:1009F0000FBE0F901F901895FC01918D828D981756
:100A000061F0828DDF01A80FB11D5D968C91928DF2
:100A10009F5F9F73928F90E008958FEF9FEF0895EF
:100A2000FC01918D828D981731F0828DE80FF11DB8
:100A3000858D90E008958FEF9FEF0895FC01918DD3
:100A4000228D892F90E0805C9F4F821B91098F73CC
:100A50009927089580E090E0892B29F00E946B048B
:100A600081110C9400000895EF92FF920F931F9351
:100A7000DC01ED91FC9111971A960D911C911B9739
:100A800018962D913C9119970684F785E02D7B01EE
:100A900040E050E060E070E009951F910F91FF90F9
:100AA000EF900895FC01868D882339F06EBD00001B
:100AB0000DB407FEFDCF8EB5089528E030E090E834
:100AC000A1A1B2A186A5492F462319F04C91842BF0
:100AD00003C04C91809584238C93A3A1B4A14C9125
:100AE00087A5842B8C93A3A1B4A14C9187A5809555
:100AF00084238C9396952150310911F70895089518
:100B00008CBD9DBD08954C7F38E0439FC0011124EA
:100B100030E043E0359527954A95E1F7822B932BFA
:100B2000687F962B089508952F923F924F925F927F
:100B30006F927F928F929F92AF92BF92CF92DF92ED
:100B4000EF92FF920F931F93CF93DF93CDB7DEB752
:100B50002D970FB6F894DEBF0FBECDBFFC016A30F3
:100B600069F424898685978538E0239F800D911D3F
:100B700011249787868715861486E4C06D3009F4A2
:100B8000E1C09D878C8754895983828993899D838D
:100B90008C83A089B189BF83AE8386849784C48403
:100BA000D58480859185C816D906BCF0EC85FD8575
:100BB0004489242F30E084859585F6E04F9F800D91
:100BC000911D1124AC85BD851D969C938E931C9719
:100BD00056964C91411192C0B5C0EC85FD85828539
:100BE00093858816990614F7F981AF2EB12CC601AA
:100BF00026E0F29F800D911D112418161906B4F6F7
:100C0000C50123E0880F991F2A95E1F7880D991DEA
:100C1000181619065CF655E0659FB00111241601FF
:100C20001A82CB018C199D0999878887D40118965F
:100C3000BB87AA87BA81B53049F0E885F985E20D0E
:100C4000F31DE65EFE4F24912B8301C01B8224011D
:100C500034013B8130FF13C0AC85BD85ED91FC9123
:100C6000B981B13031F40480F581E02D2E813F81CE
:100C700019C00684F785E02DEE80FF801EC0EC8150
:100C8000FD812E813F81E217F307F1F0AC85BD8530
:100C9000ED91FC91B981B13059F40480F581E02DDA
:100CA0002C813D81A301B1018C859D8509950CC0E6
:100CB0000684F785E02DEC80FD8085019501A20179
:100CC000B6018C859D850995EB81E695EB83FFEF59
:100CD0006F1A7F0A4A0C5B1C2A853B8562167306D5
:100CE00009F0B7CF3A813F5F3A835FEF251A350AA3
:100CF000CA0CDB1C363009F09DCF58CF4AEF4203B7
:100D0000B001439F700D1124AC85BD8518964D919F
:100D10005C911997460F571F481759079CF483E0B9
:100D2000220F331F8A95E1F71E968D919C911F9794
:100D3000280F391F1F963C932E931E971D961C92C9
:100D40001E921C9781E090E02D960FB6F894DEBFBE
:100D50000FBECDBFDF91CF911F910F91FF90EF900C
:100D6000DF90CF90BF90AF909F908F907F906F90CB
:100D70005F904F903F902F900895EF92FF920F93C6
:100D80001F93DC01ED91FC9111971A960D911C9126
:100D90001B9718962D913C9119970684F785E02DA5
:100DA0007B0140E050E060E070E009951F910F91F9
:100DB000FF90EF9008956F927F928F929F92AF92E3
:100DC000BF92CF92DF92EF92FF920F931F93CF9338
:100DD000DF936C015A014801EB013B01620E731E67
:100DE000C615D70574F4D601ED91FC910084F18508
:100DF000E02D87019401A501BE01C6010995219648
:100E0000EFCFDF91CF911F910F91FF90EF90DF9087
:100E1000CF90BF90AF909F908F907F906F900895EC
:100E2000EF92FF920F931F93DC01ED91FC91260F3F
:100E3000371F215031090680F781E02D78018A01A2
:100E400009951F910F91FF90EF900895EF92FF92F7
:100E50000F931F937801DC01ED91FC91240F351F56
:100E60008901015011090680F781E02D9B01099548
:100E70001F910F91FF90EF9008956F927F928F9244
:100E80009F92AF92BF92CF92DF92EF92FF920F9319
:100E90001F93CF93DF93EC014B015A016901380195
:100EA000E881F9810284F385E02D87010995E881C5
:100EB000F981A501460D571D415051090284F38562
:100EC000E02D9601B401CE010995E881F9810084F5
:100ED000F185E02D9301A501B401CE010995E881CA
:100EE000F981C80CD91CB601615071090084F185E3
:100EF000E02D9301A501CE010995DF91CF911F91BE
:100F00000F91FF90EF90DF90CF90BF90AF909F90A8
:100F10008F907F906F9008952F923F924F925F92A3
:100F20006F927F928F929F92AF92BF92CF92DF92F9
:100F3000EF92FF920F931F93CF93DF9300D01F92F6
:100F4000CDB7DEB74C017B836A836A015901170173
:100F50009801241B350B37FF03C0319521953109CA
:100F6000C5014A815B81841B950B97FF03C0919556
:100F70008195910951E059838217930714F01982E2
:100F80000BC09A2D8B2D5801092F182F9A818B8118
:100F9000DB82CA82C92ED82E8A819B81A816B90607
:100FA0005CF49C2D8D2D6801092F182F9A818B815F
:100FB000BB82AA82A92EB82E2501AA81BB814A1A1A
:100FC0005B0A38016C187D0877FE03C07194619448
:100FD0007108720157FE03C0BFEFEB1AFB0AF594CC
:100FE000E794C016D1061CF00FEF1FEF1FC001E001
:100FF00010E01CC0D401ED91FC91B9810480F58111
:10100000E02D9101BB23C1F04A815B81B601C4018F
:101010000995E618F708F7FE04C0C00ED11EE40CCF
:10102000F51CEA81FB813196FB83EA834A815B816F
:10103000A416B506FCF604C0A6016A817B81E7CF41
:101040000F900F900F90DF91CF911F910F91FF9014
:10105000EF90DF90CF90BF90AF909F908F907F9058
:101060006F905F904F903F902F9008951F920F9236
:101070000FB60F9211242F938F939F93EF93FF93AB
:10108000E0915C01F0915D018081E0916201F0915D
:10109000630182FD12C09081809165018F5F8F7323
:1010A00020916601821751F0E0916501F0E0E45B68
:1010B000FE4F958F8093650101C08081FF91EF9174
:1010C0009F918F912F910F900FBE0F901F901895A9
:1010D000FC01848DDF01A80FB11DA35ABF4F2C91D5
:1010E000848D90E001968F739927848FA689B789A4
:1010F0002C93A089B1898C9180648C93938D848D7D
:10110000981306C00288F389E02D80818F7D80834B
:101110000895EF92FF920F931F93CF93DF93EC010B
:1011200081E0888F9B8D8C8D981305C0E889F989A3
:10113000808185FD24C0F62E0B8D10E00F5F1F4FC0
:101140000F731127E02E8C8DE8120CC00FB607FC30
:10115000FACFE889F989808185FFF5CFCE010E9419
:101160006808F1CF8B8DFE01E80FF11DE35AFF4FA8
:10117000F0820B8FEA89FB898081806207C0EE894B
:10118000FF896083E889F98980818064808381E0B8
:1011900090E0DF91CF911F910F91FF90EF90089514
:1011A000CF93DF93EC01888D8823C9F0EA89FB890E
:1011B000808185FD05C0A889B9898C9186FD0FC005
:1011C0000FB607FCF5CF808185FFF2CFA889B989DA
:1011D0008C9185FFEDCFCE010E946808E7CFDF91AB
:1011E000CF9108950F931F93CF93DF931F92CDB7A5
:1011F000DEB78C01DC015E968C915E97882341F00E
:101200005F968D919C91909769830E94800569817A
:10121000D8019796ED91FC9198979081D1968C91F9
:10122000D197892B80839596ED91FC91969790812B
:10123000D0968C91809589238083C8010E945205A5
:10124000D8019596ED91FC9196979081D0968C91CE
:10125000892B80830F90DF91CF911F910F9108957B
:101260000F931F93CF93DF931F92CDB7DEB78C01FF
:10127000DC015E968C915E97882341F05F968D919C
:101280009C91909769830E9480056981D801979607
:10129000ED91FC9198979081D1968C91D197809502
:1012A000892380839596ED91FC9196979081D096B5
:1012B0008C91809589238083C8010E945205D801B2
:1012C0009596ED91FC9196979081D0968C91892B73
:1012D00080830F90DF91CF911F910F91089561113D
:1012E00002C060E201C061E20C943009EF92FF920B
:1012F0000F931F93CF93DF9300D0CDB7DEB77C0160
:10130000162F6AE229834A830E94300960E0C701F0
:101310000E94F208F70182A9612F680FC7010E949D
:10132000F20860E0C7010E94F208F70182A9298152
:10133000622F680FC7010E94F2086BE2C7010E948A
:10134000300960E0C7010E94F208F70183A94A81D1
:10135000642F680FC7010E94F20860E0C7010E9475
:10136000F208F70183A9602F680FC7010E94F208F5
:101370006CE2C7010F900F90DF91CF911F910F91F9
:10138000FF90EF900C943009AF92BF92CF92DF9212
:10139000EF92FF920F931F93CF93DF93EC015901CC
:1013A000680128853985621773070CF066C08A8545
:1013B0009B85481759070CF060C0FB01EA0DFB1D27
:1013C0002E173F071CF45901A61AB70A9A012C0DD3
:1013D0003D1D821793071CF46C01C41AD50A8D8D2C
:1013E000823091F49701207E3770C701982F8827AB
:1013F000990F990F990F822B932BEF2CFF24E694D2
:10140000E694E694E82AF92A0FEF040F0C0D2FEF6B
:10141000260F2A0DCE010E9476098E8D882321F099
:101420008F8D98A10E948005EFA1F8A5908189A9D0
:10143000892B8083EDA1FEA1908188A980958923C5
:1014400080831C141D049CF48501101611065CF4A5
:101450006F2DCE010E9452056E2DCE010E945205C5
:1014600001501109F2CF81E0C81AD108EACFEDA1ED
:10147000FEA1908188A9892B8083DF91CF911F9154
:101480000F91FF90EF90DF90CF90BF90AF900895B5
:10149000CF92DF92EF92FF920F931F93CF93DF9340
:1014A000EC016901780188859985681779070CF046
:1014B00054C02A853B85421753070CF04EC09B0150
:1014C0002C0D3D1D821793071CF46C01C61AD70A18
:1014D0002FEF260F2C0D042FCE010E9476098D8D43
:1014E000823091F49701207E3770C701982F8827AA
:1014F000990F990F990F822B932BEF2CFF24E694D1
:10150000E694E694E82AF92A8E8D882321F08F8DBF
:1015100098A10E948005EFA1F8A5908189A9892B47
:101520008083EDA1FEA1908188A980958923808385
:10153000C114D10461F06F2DCE010E9452056E2DB1
:10154000CE010E94520581E0C81AD108F1CFEDA169
:10155000FEA1908188A9892B8083DF91CF911F9173
:101560000F91FF90EF90DF90CF900895CF92DF9290
:10157000EF92FF920F931F93CF93DF93EC016901DA
:10158000780188859985681779070CF055C08A8598
:101590009B85481759070CF04FC09A012C0D3D1D33
:1015A000821793071CF46C01C41AD50A0FEF040FBD
:1015B0000C0D262FCE010E9476098D8D823091F47C
:1015C0009701207E3770C701982F8827990F990FB0
:1015D000990F822B932BEF2CFF24E694E694E6944C
:1015E000E82AF92A0F2D8E8D882321F08F8D98A15E
:1015F0000E948005EFA1F8A5908189A9892B80839D
:10160000EDA1FEA1908188A9809589238083C114D2
:10161000D10461F0602FCE010E9452056E2DCE01E3
:101620000E94520581E0C81AD108F1CFEDA1FEA1B8
:10163000908188A9892B8083DF91CF911F910F9191
:10164000FF90EF90DF90CF900895EF92FF920F936D
:10165000CF93DF93EC01790177FD4BC088859985A5
:10166000681779070CF045C057FD43C08A859B85F4
:1016700048175907F4F501E0040F21E0260FCE01C9
:101680000E9476098E8D882321F08F8D98A10E946B
:101690008005EFA1F8A5908189A9892B8083EDA110
:1016A000FEA1908188A98095892380838D8D8230C9
:1016B00091F49701207E3770C701982F8827990FE2
:1016C000990F990F822B932BEF2CFF24E694E6942D
:1016D000E694E82AF92A6F2DCE010E9452056E2D5C
:1016E000CE010E945205EDA1FEA1908188A9892B0F
:1016F0008083DF91CF910F91FF90EF900895ECE4FC
:10170000F1E01382128288EE93E0A0E0B0E08483DF
:101710009583A683B78384E091E09183808385ECF1
:1017200090E09587848784EC90E09787868780ECAB
:1017300090E0918B808B81EC90E0938B828B82EC9C
:1017400090E0958B848B86EC90E0978B868B118E46
:10175000128E138E148EE3EFF1E01382128220E8D2
:1017600030E03583248340EA50E057834683158A6E
:10177000158614861786168681E0848B6FEF7FEFBF
:10178000738B628B718B608B868B90E5978F10A229
:101790009AE091A799E092A798E093A7868F15A663
:1017A00014A684E191E09183808351874087338739
:1017B00022870895789484B5826084BD84B5816061
:1017C00084BD85B5826085BD85B5816085BD80910C
:1017D0006E00816080936E00109281008091810084
:1017E000826080938100809181008160809381007C
:1017F000809180008160809380008091B10084603E
:101800008093B1008091B00081608093B00080919E
:101810007A00846080937A0080917A00826080935D
:101820007A0080917A00816080937A0080917A00BA
:10183000806880937A001092C100E0915C01F09181
:101840005D0182E08083E0915801F091590110829E
:10185000E0915A01F0915B018FEC8083109264015A
:10186000E0916001F091610186E08083E0915E018A
:10187000F0915F01808180618083E0915E01F09151
:101880005F01808188608083E0915E01F0915F015B
:10189000808180688083E0915E01F0915F018081AA
:1018A0008F7D8083109226021092250280911D0266
:1018B0000E94360380911C020E94360380911C0214
:1018C00090E0FC01EE50FF4FE491F0E0EE0FFF1FBF
:1018D000E252FF4F25913491309319022093180260
:1018E000FC01EA5FFE4FE491E093230280911D0228
:1018F00090E0FC01EE50FF4FE491F0E0EE0FFF1F8F
:10190000E252FF4F2591349130931B0220931A022B
:10191000FC01EA5FFE4FE491E09324028091110202
:10192000882309F436C0CFB7F8948091E90181117A
:1019300024C0ECEFF0E08491E0E1F1E09491E82F35
:10194000F0E0EE0FFF1FE851FF4FA591B491EC912D
:10195000E92321F461E08AE00E9455038AE00E94B5
:1019600036038CB580618CBD8CB580648CBD8DE0F8
:101970000E9436038BE00E9436038091E9018F5F5D
:101980008093E901CFBF80E5809312021092130289
:1019900047C0809120020E94360380911F020E945E
:1019A00036038091200290E0FC01EE50FF4FE4915D
:1019B000F0E0EE0FFF1FE252FF4FA591B491B093FC
:1019C0001702A0931602FC01EA5FFE4F84918093F8
:1019D000220220911F0230E0F901EE50FF4FE49106
:1019E000F0E0EE0FFF1FE252FF4F459154915093EC
:1019F000150240931402F901EA5FFE4FE491E0936F
:101A000021029C91E82FE095E923EC93E0911402E8
:101A1000F091150290818091210280958923808325
:101A2000E0911802F0911902908180912302809533
:101A30008923808380911E02882319F10E94360336
:101A400061E080911E020E94550364EF71E080E026
:101A500090E00E94C60360E080911E020E94550340
:101A600064EF71E080E090E00E94C60361E0809145
:101A70001E020E94550364EF71E080E090E00E9436
:101A8000C603E8E6F0E01491C9E6D0E0111165C0A4
:101A900066E383EF91E00E943009C1E0C093080241
:101AA00068EA83EF91E00E94F20880EA90E0909368
:101AB000FC018093FB0180E890E09093FE0180930D
:101AC000FD01E091F301F091F4010088F189E02D2E
:101AD00060E070E083EF91E00995C0930C028FEF16
:101AE0009FEF90930B0280930A02909304028093DD
:101AF0000302909306028093050282E0809307021E
:101B000010920902109200021092FF01109202023C
:101B1000109201026AE271E083EF91E00E94770483
:101B200085E0809307026DE371E08CE491E00E9410
:101B3000770468E471E08CE491E00E947704C12CA2
:101B400088EFD82E90EE892E97E0992E2FE1A22EC5
:101B5000B12CEE24EA94FE2C9EC0FE01649183EF2A
:101B600091E00E9430096E01F2E0CF0ED11CFE011F
:101B70003196C4910C2F0078CF777601DC2FD150AD
:101B800050F0F701649183EF91E00E94F208FFEFBB
:101B9000EF1AFF0AF4CFC6018C0F911DEC01002350
:101BA00089F07C019FEFE91AF90AFE01649170E067
:101BB0006F3F710511F464EF71E080E090E00E94E6
:101BC000C603E701115062CF161617060CF085C048
:101BD0000284F385E02D00E018EF9B014AE050E01D
:101BE00060E070E083EF91E0099568EE73E080E0DB
:101BF00090E00E94C60310920C02C0930F029092D4
:101C00000E0280920D026091FB017091FC014AE08E
:101C100050E084E190E00E942B0468EE73E080E0E5
:101C200090E00E94C603C0930F02B0920E02A092F1
:101C30000D02C0930C02F0920B02E0920A02F092A5
:101C40000402E0920302F0920602E0920502609123
:101C5000FB017091FC014DE250E08DE290E00E94AA
:101C60002B0468EE73E080E090E00E94C603E091F0
:101C7000F301F091F4010088F189E02D60E070E05B
:101C800083EF91E0099568EE73E080E090E00E94B8
:101C9000C6030E942A05C0930C02D0920B02C09288
:101CA0000A02D0920402C0920302D0920602C092AD
:101CB00005026091FB017091FC01E091F301F0914C
:101CC000F4016115710509F07FCF0084F185E02DE5
:101CD00000E018EF20E030E081CF22273327261BD9
:101CE000370B0284F385E02D00E018EF4AE050E066
:101CF00079CFEE0FFF1F0590F491E02D099481E05C
:0C1D000090E0F8940C94840EF894FFCF4F
:101D0C0000000000890800041E05FC041005D00822
:101D1C000000000094050004250B8C07B60A480A45
:101D2C003D07C40934056F09830553696D6F732032
:101D3C004765726173696D6F753A0A20005374615F
:0C1D4C007274696E673A20000D0A0000F6
:00000001FF
