:100000000C9435000C945D000C945D000C945D0024
:100010000C945D000C945D000C945D000C945D00EC
:100020000C945D000C945D000C945D000C945D00DC
:100030000C945D000C945D000C945D000C945D00CC
:100040000C947D010C945D000C94ED010C94C7019F
:100050000C945D000C945D000C945D000C945D00AC
:100060000C945D000C945D00C90211241FBECFEFFB
:10007000D8E0DEBFCDBF11E0A0E0B1E0E6E0F6E001
:1000800002C005900D92AE31B107D9F721E0AEE183
:10009000B1E001C01D92A43CB207E1F710E0C5E356
:1000A000D0E004C02197FE010E94F602C433D107BC
:1000B000C9F70E941F020C9401030C9400003FB783
:1000C000F8948091C0019091C101A091C201B091BA
:1000D000C30126B5A89B05C02F3F19F00196A11DAD
:1000E000B11D3FBFBA2FA92F982F8827820F911DCE
:1000F000A11DB11DBC01CD0142E0660F771F881F15
:10010000991F4A95D1F70895CF92DF92EF92FF920F
:100110000F931F93CF93DF936C017A018B01C0E0A3
:10012000D0E0CE15DF0589F0D8016D918D01D601A3
:10013000ED91FC910190F081E02DC6010995892B8C
:1001400011F47E0102C02196ECCFC701DF91CF915F
:100150001F910F91FF90EF90DF90CF900895FC01D9
:10016000918D828D981761F0828DDF01A80FB11DEE
:100170005D968C91928D9F5F9F73928F90E0089512
:100180008FEF9FEF0895FC01918D828D981731F0CC
:10019000828DE80FF11D858D90E008958FEF9FEF20
:1001A0000895FC01918D228D892F90E0805C9F4FF6
:1001B000821B91098F73992708958EE191E00E9427
:1001C000D10021E0892B09F420E0822F0895FC0161
:1001D000848DDF01A80FB11DA35ABF4F2C91848DD0
:1001E00090E001968F739927848FA689B7892C9305
:1001F000A089B1898C9180648C93938D848D9813A0
:1002000006C00288F389E02D80818F7D8083089568
:10021000EF92FF920F931F93CF93DF93EC0181E056
:10022000888F9B8D8C8D981305C0E889F989808112
:1002300085FD24C0F62E0B8D10E00F5F1F4F0F734E
:100240001127E02E8C8DE8120CC00FB607FCFACFF8
:10025000E889F989808185FFF5CFCE010E94E7000A
:10026000F1CF8B8DFE01E80FF11DE35AFF4FF082B5
:100270000B8FEA89FB898081806207C0EE89FF8944
:100280006083E889F98980818064808381E090E0DF
:10029000DF91CF911F910F91FF90EF900895CF9331
:1002A000DF93EC01888D8823C9F0EA89FB8980817E
:1002B00085FD05C0A889B9898C9186FD0FC00FB650
:1002C00007FCF5CF808185FFF2CFA889B9898C9191
:1002D00085FFEDCFCE010E94E700E7CFDF91CF9100
:1002E000089580E090E0892B29F00E94DD008111C3
:1002F0000C94000008950E94FC021F920F920FB60A
:100300000F9211242F933F938F939F93AF93BF939B
:100310008091BC019091BD01A091BE01B091BF013F
:100320003091BB0123E0230F2D3720F40196A11D4E
:10033000B11D05C026E8230F0296A11DB11D209313
:10034000BB018093BC019093BD01A093BE01B0930B
:10035000BF018091C0019091C101A091C201B091F3
:10036000C3010196A11DB11D8093C0019093C101ED
:10037000A093C201B093C301BF91AF919F918F91A0
:100380003F912F910F900FBE0F901F9018951F92C5
:100390000F920FB60F9211242F933F934F935F93B9
:1003A0006F937F938F939F93AF93BF93EF93FF933D
:1003B0008EE191E00E94E700FF91EF91BF91AF9134
:1003C0009F918F917F916F915F914F913F912F916D
:1003D0000F900FBE0F901F9018951F920F920FB69F
:1003E0000F9211242F938F939F93EF93FF93E0919C
:1003F0002E01F0912F018081E0913401F0913501BF
:1004000082FD12C09081809137018F5F8F732091A0
:100410003801821751F0E0913701F0E0E25EFE4FC3
:10042000958F8093370101C08081FF91EF919F915B
:100430008F912F910F900FBE0F901F901895789469
:1004400084B5826084BD84B5816084BD85B58260D9
:1004500085BD85B5816085BD80916E00816080938A
:100460006E001092810080918100826080938100F3
:100470008091810081608093810080918000816003
:10048000809380008091B10084608093B10080915E
:10049000B00081608093B00080917A008460809386
:1004A0007A0080917A00826080937A0080917A004D
:1004B000816080937A0080917A00806880937A00CE
:1004C0001092C100E0912E01F0912F0182E0808313
:1004D000E0912A01F0912B011082E0912C01F09122
:1004E0002D018FEC808310923601E0913201F09162
:1004F000330186E08083E0913001F0913101808109
:1005000080618083E0913001F091310180818860C9
:100510008083E0913001F091310180818068808397
:10052000E0913001F091310180818F7D80834DE039
:1005300050E060E171E08EE191E00E9484000E9451
:100540005F004B015C0188EEC82E83E0D82EE12CC1
:10055000F12C0E945F00DC01CB0188199909AA09DE
:10056000BB09883E9340A105B10558F021E0C21AAD
:10057000D108E108F10888EE880E83E0981EA11CDE
:10058000B11CC114D104E104F10419F70E947101F6
:10059000CECFEEE1F1E01382128288EE93E0A0E08C
:1005A000B0E084839583A683B78384E091E0918350
:1005B000808385EC90E09587848784EC90E0978732
:1005C000868780EC90E0918B808B81EC90E0938B20
:1005D000828B82EC90E0958B848B86EC90E0978BFD
:1005E000868B118E128E138E148E0895EE0FFF1FC0
:1005F0000590F491E02D099481E090E0F8940C943A
:060600000103F894FFCF96
:100606000000000008018400D100AF00C3004F01C4
:0E06160048656C6C6F20576F726C64210A008F
:00000001FF
