:100000000C945D000C9485000C9485000C94850084
:100010000C9485000C9485000C9485000C9485004C
:100020000C9485000C9485000C9485000C9485003C
:100030000C9485000C9485000C9485000C9485002C
:100040000C9463030C9485000C94D3030C94AD03BF
:100050000C9485000C9485000C9485000C9485000C
:100060000C9485000C94850000000008000201003B
:100070000003040700000000000000000000000072
:10008000250028002B0000000000240027002A0083
:10009000040404040404040402020202020203032E
:1000A0000303030301020408102040800102040836
:1000B0001020010204081020050411241FBECFEFF8
:1000C000D8E0DEBFCDBF11E0A0E0B1E0E8E1FBE0A9
:1000D00002C005900D92AA34B107D9F722E0AAE434
:1000E000B1E001C01D92A830B207E1F710E0CDE504
:1000F000D0E004C02197FE010E947F05CC35D107D6
:10010000C9F70E9450040C948A050C94000090E0FA
:10011000FC01EC55FF4F2491FC01E057FF4F849107
:10012000882399F090E0880F991FFC01EA57FF4F50
:10013000A591B491FC01E458FF4F859194918FB73C
:10014000F894EC91E22BEC938FBF089590E0FC01C2
:10015000E859FF4F3491FC01EC55FF4F2491FC010D
:10016000E057FF4FE491EE2309F43BC0332339F10C
:10017000333091F038F43130A9F0323001F584B5E4
:100180008F7D12C0373091F03830A1F03430B9F49F
:10019000809180008F7D03C0809180008F77809355
:1001A00080000DC084B58F7784BD09C08091B000F8
:1001B0008F7703C08091B0008F7D8093B000F0E016
:1001C000EE0FFF1FE458FF4FA591B4918FB7F8943D
:1001D000EC91611103C020952E2301C02E2B2C938E
:1001E0008FBF08953FB7F89480914F0190915001CF
:1001F000A0915101B091520126B5A89B05C02F3F97
:1002000019F00196A11DB11D3FBFBA2FA92F982F3C
:100210008827820F911DA11DB11DBC01CD0142E0B7
:10022000660F771F881F991F4A95D1F70895CF92BF
:10023000DF92EF92FF920F931F93CF93DF936C01A6
:100240007A018B01C0E0D0E0CE15DF0589F0D8013E
:100250006D918D01D601ED91FC910190F081E02D21
:10026000C6010995892B11F47E0102C02196ECCFBD
:10027000C701DF91CF911F910F91FF90EF90DF9019
:10028000CF900895FC01918D828D981761F0828D39
:10029000DF01A80FB11D5D968C91928D9F5F9F73BA
:1002A000928F90E008958FEF9FEF0895FC01918D5C
:1002B000828D981731F0828DE80FF11D858D90E0C9
:1002C00008958FEF9FEF0895FC01918D228D892F66
:1002D00090E0805C9F4F821B91098F73992708954E
:1002E00083E591E00E94640121E0892B09F420E07C
:1002F000822F0895FC01848DDF01A80FB11DA35A40
:10030000BF4F2C91848D90E001968F739927848F35
:10031000A689B7892C93A089B1898C9180648C932C
:10032000938D848D981306C00288F389E02D808117
:100330008F7D80830895EF92FF920F931F93CF9349
:10034000DF93EC0181E0888F9B8D8C8D981305C025
:10035000E889F989808185FD24C0F62E0B8D10E097
:100360000F5F1F4F0F731127E02E8C8DE8120CC00A
:100370000FB607FCFACFE889F989808185FFF5CFB0
:10038000CE010E947A01F1CF8B8DFE01E80FF11DA5
:10039000E35AFF4FF0820B8FEA89FB8980818062EC
:1003A00007C0EE89FF896083E889F98980818064CC
:1003B000808381E090E0DF91CF911F910F91FF90BA
:1003C000EF900895CF93DF93EC01888D8823C9F0D7
:1003D000EA89FB89808185FD05C0A889B9898C914E
:1003E00086FD0FC00FB607FCF5CF808185FFF2CFE9
:1003F000A889B9898C9185FFEDCFCE010E947A0141
:10040000E7CFDF91CF91089580E090E0892B29F02C
:100410000E94700181110C9400000895CF93DF9326
:10042000EC0160E08E810E94A60061E08E810E9456
:10043000A60060E08E810E94A6008BE891E0019703
:10044000F1F7DF91CF910895CF92DF92EF92FF9273
:100450000F931F93CF93DF937C016C0187E0C80E4D
:10046000D11CC0E0D0E0062F10E0B8010C2E02C075
:10047000759567950A94E2F76170F60181916F01B5
:100480000E94A6002196C430D10579F7C701DF91FB
:10049000CF911F910F91FF90EF90DF90CF900C9430
:1004A0000E02CF92DF92EF92FF920F931F93CF93A2
:1004B000DF93EC01F62E642F8C810E94A6008D81C3
:1004C0008F3F19F060E00E94A6008F850F2D10E08D
:1004D00084FF25C06E0187E0C80ED11CE12CF12CF1
:1004E000B8010E2C02C0759567950A94E2F7617009
:1004F000F60181916F010E94A600FFEFEF1AFF0A3B
:1005000088E0E816F10461F7CE01DF91CF911F91E9
:100510000F91FF90EF90DF90CF900C940E02B801F6
:1005200084E0759567958A95E1F7CE010E942402D3
:100530006F2DCE01DF91CF911F910F91FF90EF9022
:10054000DF90CF900C94240241E00E94510281E0A0
:1005500090E0089540E00C945102EF92FF920F93C7
:100560001F93CF93DF93EC01623018F08F85886082
:100570008F876B8B1C8A80E48D8B80E18E8B80E56E
:100580008F8B8C810E9487008D818F3F11F00E949C
:1005900087008E810E9487007E0187E0E80EF11CB3
:1005A00000E010E08F8584FD03C084E090E002C08D
:1005B00088E090E00817190744F4F70181917F0162
:1005C0000E9487000F5F1F4FEDCF8BE39DE00197E7
:1005D000F1F760E08C810E94A60060E08E810E94AD
:1005E000A6008D818F3F19F060E00E94A6006F8504
:1005F00064FD1DC063E0CE010E9424020BE416E4FA
:10060000C8010197F1F763E0CE010E942402C801FE
:100610000197F1F763E0CE010E94240283E592E0A6
:100620000197F1F762E0CE010E94240216C06062D9
:10063000CE010E94AA028BE496E40197F1F76F8540
:100640006062CE010E94AA0283E592E00197F1F771
:100650006F856062CE010E94AA026F856062CE0142
:100660000E94AA0284E0888B6CE0CE010E94AA025C
:1006700061E0CE010E94AA028BE39FE10197F1F7AE
:1006800082E0898B66E0CE01DF91CF911F910F91BF
:10069000FF90EF900C94AA020E94850561157105E8
:1006A00079F0FB0101900020E9F73197AF01461B7B
:1006B000570BDC01ED91FC910280F381E02D099450
:1006C00080E090E008951F920F920FB60F921124D0
:1006D0002F933F938F939F93AF93BF9380914B0141
:1006E00090914C01A0914D01B0914E0130914A0181
:1006F00023E0230F2D3720F40196A11DB11D05C065
:1007000026E8230F0296A11DB11D20934A01809374
:100710004B0190934C01A0934D01B0934E018091F9
:100720004F0190915001A0915101B0915201019659
:10073000A11DB11D80934F0190935001A0935101D1
:10074000B0935201BF91AF919F918F913F912F91A3
:100750000F900FBE0F901F9018951F920F920FB61B
:100760000F9211242F933F934F935F936F937F9337
:100770008F939F93AF93BF93EF93FF9383E591E0A4
:100780000E947A01FF91EF91BF91AF919F918F915C
:100790007F916F915F914F913F912F910F900FBE7D
:1007A0000F901F9018951F920F920FB60F92112461
:1007B0002F938F939F93EF93FF93E0916301F091B9
:1007C00064018081E0916901F0916A0182FD12C0AB
:1007D000908180916C018F5F8F7320916D018217E2
:1007E00051F0E0916C01F0E0ED5AFE4F958F80934F
:1007F0006C0101C08081FF91EF919F918F912F91AA
:100800000F900FBE0F901F901895E3E5F1E0138253
:10081000128288EE93E0A0E0B0E084839583A68303
:10082000B78384E091E09183808385EC90E09587A5
:10083000848784EC90E09787868780EC90E0918BAA
:10084000808B81EC90E0938B828B82EC90E0958B97
:10085000848B86EC90E0978B868B118E128E138E94
:10086000148EE0EFF1E01382128284E191E0918333
:10087000808382E084838FEF858383E0868384E0B6
:10088000878385E0808786E0818787E0828713867B
:10089000148615861686178661E0CF010C94AD028A
:1008A000CF93DF93CDB7DEB7A1970FB6F894DEBF35
:1008B0000FBECDBF789484B5826084BD84B581605D
:1008C00084BD85B5826085BD85B5816085BD80911B
:1008D0006E00816080936E00109281008091810093
:1008E000826080938100809181008160809381008B
:1008F000809180008160809380008091B10084604D
:100900008093B1008091B00081608093B0008091AD
:100910007A00846080937A0080917A00826080936C
:100920007A0080917A00816080937A0080917A00C9
:10093000806880937A001092C100E0916301F09189
:10094000640182E08083E0915F01F0916001108298
:10095000E0916101F09162018FEC808310926B0154
:10096000E0916701F091680186E08083E091650184
:10097000F0916601808180618083E0916501F09152
:100980006601808188608083E0916501F091660155
:10099000808180688083E0916501F09166018081AB
:1009A0008F7D808368E171E083E591E00E944E03D2
:1009B00061E271E083E591E00E944E0362E080EF26
:1009C00091E00E94AD0264E271E080EF91E00E944C
:1009D0004E039AE0892E912CA12CB12CE0910302B8
:1009E000E23010F4E15001C0E1E0F0E0E051FE4FF0
:1009F0006489606880EF91E00E94AA022FB7F894A2
:100A000060914B0170914C0180914D0190914E018C
:100A10002FBF28EE33E040E050E00E945D0519A2B0
:100A20008E010F5D1F4FCA01B901A50194010E94FB
:100A30005D05605DF80162938F0121153105410567
:100A4000510589F7BF0180EF91E00E944E036FE3EB
:100A500071E083E591E00E944E0361E271E083E57D
:100A600091E00E944E030E94F2006B017C0188EE2F
:100A7000482E83E0582E612C712C0E94F200DC017C
:100A8000CB018C199D09AE09BF09883E9340A10591
:100A9000B10558F0F1E04F1A51086108710828EECD
:100AA000C20E23E0D21EE11CF11C4114510461046A
:100AB000710419F70E94040291CFA1E21A2EAA1B19
:100AC000BB1BFD010DC0AA1FBB1FEE1FFF1FA217FE
:100AD000B307E407F50720F0A21BB30BE40BF50BFB
:100AE000661F771F881F991F1A9469F76095709584
:100AF000809590959B01AC01BD01CF010895EE0F4B
:100B0000FF1F0590F491E02D099481E090E0F894A6
:080B10000C948A05F894FFCF54
:100B1800000000009B011701640142015601E20137
:100B280000000000A40217014C434420746573744C
:100B3800000D0A0068656C6C6F2C20776F726C640E
:100B4800212068656C6C6F2C20776F726C64004C88
:0A0B5800434420746573740A000022
:00000001FF
