:100000000C948E030C94B6030C94B6030C94B603B4
:100010000C94B6030C94B6030C94B6030C94B6037C
:100020000C94B6030C94B6030C94B6030C94B6036C
:100030000C94B6030C94B6030C94B6030C94B6035C
:100040000C9471120C94B6030C943E0A0C94180A8A
:100050000C94B6030C94B6030C94B6030C94B6033C
:100060000C94860D0C94B60300000000003E5B4F1C
:100070005B3E3E6B4F6B3E1C3E7C3E1C183C7E3C08
:10008000181C577D571C1C5E7F5E1C00183C180016
:10009000FFE7C3E7FF0018241800FFE7DBE7FF30A6
:1000A000483A060E2629792926407F050507407F14
:1000B00005253F5A3CE73C5A7F3E1C1C08081C1C87
:1000C0003E7F14227F22145F5F005F5F06097F017D
:1000D0007F006689956A606060606094A2FFA29468
:1000E00008047E040810207E201008082A1C080836
:1000F0001C2A08081E101010100C1E0C1E0C303884
:100100003E3830060E3E0E06000000000000005F84
:1001100000000007000700147F147F14242A7F2AA0
:100120001223130864623649562050000807030062
:10013000001C2241000041221C002A1C7F1C2A08AE
:10014000083E080800807030000808080808000011
:1001500060600020100804023E5149453E00427F85
:10016000400072494949462141494D331814127FD4
:100170001027454545393C4A494931412111090774
:100180003649494936464949291E000014000000F5
:1001900040340000000814224114141414140041C7
:1001A00022140802015909063E415D594E7C121184
:1001B000127C7F494949363E414141227F414141BC
:1001C0003E7F494949417F090909013E4141517337
:1001D0007F0808087F00417F41002040413F017FA8
:1001E000081422417F404040407F021C027F7F0470
:1001F00008107F3E4141413E7F090909063E4151B9
:10020000215E7F09192946264949493203017F01A8
:10021000033F4040403F1F2040201F3F4038403FA9
:10022000631408146303047804036159494D4300BF
:100230007F4141410204081020004141417F0402F6
:10024000010204404040404000030708002054548D
:1002500078407F284444383844444428384444286B
:100260007F385454541800087E090218A4A49C78BE
:100270007F0804047800447D40002040403D007F1A
:100280001028440000417F40007C047804787C08FA
:100290000404783844444438FC18242418182424CE
:1002A00018FC7C08040408485454542404043F44B3
:1002B000243C4040207C1C2040201C3C4030403CE2
:1002C00044281028444C9090907C4464544C440042
:1002D00008364100000077000000413608000201A6
:1002E0000204023C2623263C1EA1A161123A404092
:1002F000207A385454555921555579412154547810
:1003000041215554784020545579400C1E527212A8
:100310003955555559395454545939555454580030
:1003200000457C410002457D420001457C40F029AA
:100330002429F0F0282528F07C54554500205454F9
:100340007C547C0A097F493249494932324848483D
:1003500032324A4848303A4141217A3A4240207884
:10036000009DA0A07D39444444393D4040403D3C7F
:1003700024FF2424487E4943662B2FFC2F2BFF09A2
:1003800029F620C0887E0903205454794100004496
:100390007D413048484A32384040227A007A0A0A81
:1003A000727D0D19317D2629292F282629292926F4
:1003B00030484D4020380808080808080808382F39
:1003C00010C8ACBA2F102834FA00007B00000814C3
:1003D0002A142222142A1408AA005500AAAA55AAEF
:1003E00055AA000000FF00101010FF00141414FFA5
:1003F000001010FF00FF1010F010F0141414FC0097
:100400001414F700FF0000FF00FF1414F404FC14A0
:100410001417101F10101F101F1414141F00101099
:1004200010F0000000001F101010101F101010100E
:10043000F010000000FF101010101010101010FF2E
:1004400010000000FF140000FF00FF00001F101745
:100450000000FC04F414141710171414F404F4002E
:1004600000FF00F714141414141414F700F71414F4
:1004700014171410101F101F141414F4141010F07B
:1004800010F000001F101F0000001F14000000FCEF
:10049000140000F010F01010FF10FF141414FF14DB
:1004A0001010101F00000000F010FFFFFFFFFFF012
:1004B000F0F0F0F0FFFFFF0000000000FFFF0F0F63
:1004C0000F0F0F38444438447C2A2A3E147E02021F
:1004D0000606027E027E0263554941633844443C6D
:1004E00004407E201E2006027E020299A5E7A599FF
:1004F0001C2A492A1C4C7201724C304A4D4D303036
:1005000048784830BC625A463D3E494949007E0120
:1005100001017E2A2A2A2A2A44445F444440514A3F
:10052000444040444A51400000FF0103E080FF0086
:100530000008086B6B083612362436060F090F06C2
:10054000000018180000001010003040FF010100EA
:100550001F01011E00191D1712003C3C3C3C00000D
:1005600000000013018032118064260104B1020BE7
:1005700014C0020800C10105C5024130C701C1EC29
:10058000011B3A8155642A040000007F2B040000FF
:10059000009F3601C8B70100F20100E08F28242235
:1005A000312B0E53A5421618121A140332E18F177D
:1005B0001B1D0E14112CA53D09272D252B3C321394
:1005C000800A2980FF000000002300260029000483
:1005D00004040404040404020202020202030303EA
:1005E00003030301020408102040800102040810E4
:1005F0002001020408102000000000240027002A27
:100600000000000000250028002B0000000008006A
:1006100002010000030407000000000000000000C9
:10062000407A10F35A00A0724E18090010A5D4E8C1
:100630000000E87648170000E40B54020000CA9A54
:100640003B000000E1F505000080969800000040A6
:10065000420F000000A086010000001027000000EB
:1006600000E803000000006400000000000A000031
:100670000000000100000000002C76D888DC674FE5
:100680000823DFC1DFAE59E1B1B796E5E3E453C615
:100690003AE651997696E8E6C28426EB898C9B620D
:1006A000ED407C6FFCEFBC9C9F40F2BAA56FA5F4B7
:1006B00090055A2AF75C936B6CF9676DC11BFCE0DF
:1006C000E40D47FEF520E6B500D0ED902E03009432
:1006D0003577050080841E080000204E0A000000C7
:1006E000C80C333333330F986E12831141EF8D21D1
:1006F00014893BE65516CFFEE6DB18D1844B381B38
:10070000F77C1D901DA4BBE424203284725E2281FC
:1007100000C9F124ECA1E53D2700701811241FBE8B
:10072000CFEFD8E0DEBFCDBF11E0A0E0B1E0EAE05E
:10073000F1E402C005900D92A639B107D9F723E084
:10074000A6E9B1E001C01D92A738B207E1F713E0B6
:10075000CEE8D3E004C02197FE010E944619CD38AF
:10076000D107C9F70E94BB120C9483200C9400009F
:10077000CF92DF92EF92FF920F931F93CF93DF936D
:100780006C017A018B01C0E0D0E0CE15DF0589F065
:10079000D8016D918D01D601ED91FC910190F08110
:1007A000E02DC6010995892B11F47E0102C0219626
:1007B000ECCFC701DF91CF911F910F91FF90EF9088
:1007C000DF90CF900895FC01918D828D981761F094
:1007D000828DDF01A80FB11D5D968C91928D9F5F78
:1007E0009F73928F90E008958FEF9FEF0895FC0123
:1007F000918D828D981731F0828DE80FF11D858DD6
:1008000090E008958FEF9FEF0895FC01918D228D68
:10081000892F90E0805C9F4F821B91098F739927ED
:1008200008958BE692E00E94050421E0892B09F4EB
:1008300020E0822F0895FC01848DDF01A80FB11DF7
:10084000A35ABF4F2C91848D90E001968F73992706
:10085000848FA689B7892C93A089B1898C918064F3
:100860008C93938D848D981306C00288F389E02DB4
:1008700080818F7D80830895EF92FF920F931F9365
:10088000CF93DF93EC0181E0888F9B8D8C8D981343
:1008900005C0E889F989808185FD24C0F62E0B8D7D
:1008A00010E00F5F1F4F0F731127E02E8C8DE812A1
:1008B0000CC00FB607FCFACFE889F989808185FF63
:1008C000F5CFCE010E941B04F1CF8B8DFE01E80F06
:1008D000F11DE35AFF4FF0820B8FEA89FB8980817B
:1008E000806207C0EE89FF896083E889F989808189
:1008F0008064808381E090E0DF91CF911F910F9120
:10090000FF90EF900895CF93DF93EC01888D8823BB
:10091000C9F0EA89FB89808185FD05C0A889B9896C
:100920008C9186FD0FC00FB607FCF5CF808185FF47
:10093000F2CFA889B9898C9185FFEDCFCE010E94B5
:100940001B04E7CFDF91CF91089580E090E0892BE1
:1009500029F00E94110481110C9400000895EF9277
:10096000FF920F931F93DC01ED91FC9111971A9662
:100970000D911C911B9718962D913C911997068407
:10098000F785E02D7B0140E050E060E070E00995E4
:100990001F910F91FF90EF900895FC01868D8823A1
:1009A00039F06EBD00000DB407FEFDCF8EB5089581
:1009B00028E030E090E8A1A1B2A186A5492F462306
:1009C00019F04C91842B03C04C91809584238C9317
:1009D000A3A1B4A14C9187A5842B8C93A3A1B4A10E
:1009E0004C9187A5809584238C939695215031094D
:1009F00011F7089508958CBD9DBD08954C7F38E092
:100A0000439FC001112430E043E0359527954A9576
:100A1000E1F7822B932B687F962B089508952F92F0
:100A20003F924F925F926F927F928F929F92AF927E
:100A3000BF92CF92DF92EF92FF920F931F93CF93CB
:100A4000DF93CDB7DEB72D970FB6F894DEBF0FBE9C
:100A5000CDBFFC016A3069F424898685978538E02A
:100A6000239F800D911D11249787868715861486F4
:100A7000E4C06D3009F4E1C09D878C8754895983A7
:100A8000828993899D838C83A089B189BF83AE833A
:100A900086849784C484D58480859185C816D906B8
:100AA000BCF0EC85FD854489242F30E08485958554
:100AB000F6E04F9F800D911D1124AC85BD851D96DC
:100AC0009C938E931C9756964C91411192C0B5C041
:100AD000EC85FD85828593858816990614F7F98142
:100AE000AF2EB12CC60126E0F29F800D911D11247E
:100AF00018161906B4F6C50123E0880F991F2A9528
:100B0000E1F7880D991D181619065CF655E0659FEA
:100B1000B001112416011A82CB018C199D09998705
:100B20008887D4011896BB87AA87BA81B53049F067
:100B3000E885F985E20DF31DE859FF4F24912B83D9
:100B400001C01B82240134013B8130FF13C0AC85FE
:100B5000BD85ED91FC91B981B13031F40480F5810E
:100B6000E02D2E813F8119C00684F785E02DEE80AF
:100B7000FF801EC0EC81FD812E813F81E217F307CB
:100B8000F1F0AC85BD85ED91FC91B981B13059F49E
:100B90000480F581E02D2C813D81A301B1018C857C
:100BA0009D8509950CC00684F785E02DEC80FD80BD
:100BB00085019501A201B6018C859D850995EB8182
:100BC000E695EB83FFEF6F1A7F0A4A0C5B1C2A85C0
:100BD0003B856216730609F0B7CF3A813F5F3A83CF
:100BE0005FEF251A350ACA0CDB1C363009F09DCFA1
:100BF00058CF4AEF4203B001439F700D1124AC85DA
:100C0000BD8518964D915C911997460F571F48174F
:100C100059079CF483E0220F331F8A95E1F71E9653
:100C20008D919C911F97280F391F1F963C932E93EF
:100C30001E971D961C921E921C9781E090E02D96A7
:100C40000FB6F894DEBF0FBECDBFDF91CF911F91DD
:100C50000F91FF90EF90DF90CF90BF90AF909F905B
:100C60008F907F906F905F904F903F902F9008955E
:100C7000EF92FF920F931F93DC01ED91FC9111977E
:100C80001A960D911C911B9718962D913C911997CE
:100C90000684F785E02D7B0140E050E060E070E0E5
:100CA00009951F910F91FF90EF9008956F927F9299
:100CB0008F929F92AF92BF92CF92DF92EF92FF926C
:100CC0000F931F93CF93DF936C015A014801EB01FF
:100CD0003B01620E731EC615D70574F4D601ED9163
:100CE000FC910084F185E02D87019401A501BE01EE
:100CF000C60109952196EFCFDF91CF911F910F91FA
:100D0000FF90EF90DF90CF90BF90AF909F908F902B
:100D10007F906F900895EF92FF920F931F93DC01E5
:100D2000ED91FC91260F371F215031090680F78184
:100D3000E02D78018A0109951F910F91FF90EF90A6
:100D40000895EF92FF920F931F937801DC01ED91CC
:100D5000FC91240F351F8901015011090680F7818C
:100D6000E02D9B0109951F910F91FF90EF90089541
:100D70006F927F928F929F92AF92BF92CF92DF92AB
:100D8000EF92FF920F931F93CF93DF93EC014B01F0
:100D90005A0169013801E881F9810284F385E02D67
:100DA00087010995E881F981A501460D571D41503C
:100DB00051090284F385E02D9601B401CE01099515
:100DC000E881F9810084F185E02D9301A501B4014A
:100DD000CE010995E881F981C80CD91CB601615092
:100DE00071090084F185E02D9301A501CE010995DB
:100DF000DF91CF911F910F91FF90EF90DF90CF90F7
:100E0000BF90AF909F908F907F906F9008952F929A
:100E10003F924F925F926F927F928F929F92AF928A
:100E2000BF92CF92DF92EF92FF920F931F93CF93D7
:100E3000DF9300D01F92CDB7DEB74C017B836A836E
:100E40006A01590117019801241B350B37FF03C0B4
:100E5000319521953109C5014A815B81841B950B30
:100E600097FF03C091958195910951E059838217AD
:100E7000930714F019820BC09A2D8B2D5801092F5E
:100E8000182F9A818B81DB82CA82C92ED82E8A8143
:100E90009B81A816B9065CF49C2D8D2D6801092F45
:100EA000182F9A818B81BB82AA82A92EB82E250188
:100EB000AA81BB814A1A5B0A38016C187D0877FE4B
:100EC00003C0719461947108720157FE03C0BFEFB3
:100ED000EB1AFB0AF594E794C016D1061CF00FEF4D
:100EE0001FEF1FC001E010E01CC0D401ED91FC9188
:100EF000B9810480F581E02D9101BB23C1F04A81C5
:100F00005B81B601C4010995E618F708F7FE04C035
:100F1000C00ED11EE40CF51CEA81FB813196FB83E7
:100F2000EA834A815B81A416B506FCF604C0A601DB
:100F30006A817B81E7CF0F900F900F90DF91CF9167
:100F40001F910F91FF90EF90DF90CF90BF90AF90E7
:100F50009F908F907F906F905F904F903F902F90D9
:100F600008950895E0914A0280914902E81730F40B
:100F7000F0E0E55BFD4F808190E008958FEF9FEFFB
:100F8000089590914A0280914902981750F4E92FF0
:100F9000F0E0E55BFD4F208130E09F5F90934A02D7
:100FA00002C02FEF3FEFC90108958091490290E000
:100FB00020914A02821B9109089585ED8093BC001F
:100FC0008091BC0084FDFCCF1092480208954091AE
:100FD000B801262F30E0240F311D21323105DCF419
:100FE000209148022430C9F4FC0180E090E086178B
:100FF00058F43091B8012191DC01AA56BE4FA30FDD
:10100000B11D2C930196F3CF8091B801680F6093C6
:10101000B80180E0089581E0089582E00895CF92BC
:10102000DF92EF92FF920F931F93CF93DF937C0198
:10103000262F972F8A018091FE01882391F0C62FD9
:10104000D72F6E01C40ED51ECC15DD0571F0699148
:10105000D701ED91FC910190F081E02DC701099538
:10106000F3CF642F822F0E94E707C801DF91CF9151
:101070001F910F91FF90EF90DF90CF900895CF9345
:10108000DF931F92CDB7DEB769832091FE01222343
:10109000D1F020912102203240F021E030E0FC012B
:1010A0003383228380E090E015C08091FF01E82F18
:1010B000F0E0E050FE4F998190838F5F8093FF01B5
:1010C0008093210205C061E0CE0101960E94E707EE
:1010D00081E090E00F90DF91CF9108950E945B1C1A
:1010E000CF93DF93EC0160E08E810E94A31161E059
:1010F0008E810E94A31160E08E810E94A3118BE873
:1011000091E00197F1F7DF91CF910895EF92FF926F
:101110000F931F93CF93DF93EC017B01888199811B
:101120006115710519F1FB0101900020E9F7319774
:101130008F01061B170B009729F02A813B8120178E
:101140003107F8F4B8016F5F7F4F0E94911B009741
:1011500059F0998388831B830A832C813D81232B3B
:1011600081F4FC0110820DC088819981009711F0F3
:101170000E94F91A198218821D821C821B821A820F
:1011800007C01D830C83B701888199810E94691C67
:10119000CE01DF91CF911F910F91FF90EF900895B5
:1011A0006115710579F0FB0101900020E9F7319795
:1011B000AF01461B570BDC01ED91FC910280F381DE
:1011C000E02D099480E090E008954F925F926F9235
:1011D0007F92EF92FF920F931F93CF93DF93CDB740
:1011E000DEB7A1970FB6F894DEBF0FBECDBF7C016E
:1011F000FA01CB0119A2223008F42AE08E010F5D1A
:101200001F4F422E512C612C712CBF01A301920162
:101210000E942419F901CA01015011096A3014F41D
:10122000605D01C0695CD8016C93232B242B252BB6
:1012300061F7B801C7010E94D008A1960FB6F894D3
:10124000DEBF0FBECDBFDF91CF911F910F91FF90F9
:10125000EF907F906F905F904F9008954F925F92C4
:101260006F927F928F929F92AF92BF92CF92DF92B6
:10127000EF92FF92CF93DF93EC016A017B01B22ED4
:101280009A01AB01C701B6010E945F1A882319F0C9
:1012900068E471E027C026013701E89477F82FEF62
:1012A0003FEF4FE75FE7C301B2010E945F1A811170
:1012B0000DC02FEF3FEF4FE75FE7C301B2010E9480
:1012C000281F18161CF46CE471E00CC02FEF3FEFE0
:1012D0004FE75FE4C701B6010E945A1A18169CF442
:1012E00060E571E0CE01DF91CF91FF90EF90DF904C
:1012F000CF90BF90AF909F908F907F906F905F90B6
:101300004F900C94D0082FEF3FEF4FE75FECC701F1
:10131000B6010E94281F87FDE3CF20E030E0A9013D
:10132000C701B6010E94281F87FF0EC0E881F9811E
:101330000190F081E02D6DE2CE0109954C01F7FAA4
:10134000F094F7F8F09402C0812C912CA12C60E06D
:1013500070E080E09FE3AB1441F020E030E040E239
:1013600051E40E94B919A394F6CF9B01AC01C701C7
:10137000B6010E944D192B013C010E942B1A6B01F2
:101380007C010E942D1F9B01AC01C301B2010E9490
:101390004C192B013C012AE0B701A601CE010E94A5
:1013A000E5087C01E80CF91CBB2051F0E881F981CB
:1013B0000190F081E02D6EE2CE010995E80EF91E54
:1013C000DB2CDD2029F120E030E040E251E4C301D4
:1013D000B2010E948E1F2B013C010E942B1A4B016F
:1013E000A12CB12C2AE0B501A401CE010E94E50890
:1013F000E80EF91EC501B4010E942D1F9B01AC012E
:10140000C301B2010E944C192B013C01DA94D9CFDF
:10141000C701DF91CF91FF90EF90DF90CF90BF9009
:10142000AF909F908F907F906F905F904F900895B6
:101430001F920F920FB60F9211242F933F934F9349
:101440005F936F937F938F939F93AF93BF93EF932C
:10145000FF938BE692E00E941B04FF91EF91BF91F6
:10146000AF919F918F917F916F915F914F913F913C
:101470002F910F900FBE0F901F9018951F920F92F3
:101480000FB60F9211242F938F939F93EF93FF9397
:10149000E0917B02F0917C028081E0918102F091E9
:1014A000820282FD12C09081809184028F5F8F73CF
:1014B00020918502821751F0E0918402F0E0E55915
:1014C000FD4F958F8093840201C08081FF91EF9141
:1014D0009F918F912F910F900FBE0F901F90189595
:1014E000CF92DF92EF92FF920F931F93CF93DF93F0
:1014F0007C016C0187E0C80ED11CC0E0D0E0062F53
:1015000010E0B8010C2E02C0759567950A94E2F7B9
:101510006170F60181916F010E94A3112196C43080
:10152000D10579F7C701DF91CF911F910F91FF90FE
:10153000EF90DF90CF900C947008CF92DF92EF92F3
:10154000FF920F931F93CF93DF93EC01F62E642F3E
:101550008C810E94A3118D818F3F19F060E00E9461
:10156000A3118F850F2D10E084FF25C06E0187E049
:10157000C80ED11CE12CF12CB8010E2C02C07595BF
:1015800067950A94E2F76170F60181916F010E94FC
:10159000A311FFEFEF1AFF0A88E0E816F10461F7E4
:1015A000CE01DF91CF911F910F91FF90EF90DF90CF
:1015B000CF900C947008B80184E0759567958A9572
:1015C000E1F7CE010E94700A6F2DCE01DF91CF911D
:1015D0001F910F91FF90EF90DF90CF900C94700AC5
:1015E00041E00E949D0A81E090E0089540E00C9463
:1015F0009D0A0F931F93CF93DF931F92CDB7DEB752
:101600008C01DC015E968C915E97882341F05F9699
:101610008D919C91909769830E94FB046981D80108
:101620009796ED91FC9198979081D1968C91D19756
:10163000892B80839596ED91FC9196979081D09619
:101640008C91809589238083C8010E94CD04D801A4
:101650009596ED91FC9196979081D0968C91892BDF
:1016600080830F90DF91CF911F910F9108950F9379
:101670001F93CF93DF931F92CDB7DEB78C01DC01B0
:101680005E968C915E97882341F05F968D919C9138
:10169000909769830E94FB046981D8019796ED9128
:1016A000FC9198979081D1968C91D19780958923C0
:1016B00080839596ED91FC9196979081D0968C9130
:1016C000809589238083C8010E94CD04D801959616
:1016D000ED91FC9196979081D0968C91892B808387
:1016E0000F90DF91CF911F910F910895611102C06A
:1016F00060E201C061E20C94370BEF92FF920F930E
:101700001F93CF93DF9300D0CDB7DEB77C01162FA8
:101710006AE229834A830E94370B60E0C7010E9476
:10172000F90AF70182A9612F680FC7010E94F90A1F
:1017300060E0C7010E94F90AF70182A92981622F9E
:10174000680FC7010E94F90A6BE2C7010E94370BBC
:1017500060E0C7010E94F90AF70183A94A81642F5A
:10176000680FC7010E94F90A60E0C7010E94F90AE8
:10177000F70183A9602F680FC7010E94F90A6CE284
:10178000C7010F900F90DF91CF911F910F91FF90A4
:10179000EF900C94370BAF92BF92CF92DF92EF9203
:1017A000FF920F931F93CF93DF93EC0159016801D0
:1017B00028853985621773070CF066C08A859B857A
:1017C000481759070CF060C0FB01EA0DFB1D2E17EE
:1017D0003F071CF45901A61AB70A9A012C0D3D1DAA
:1017E000821793071CF46C01C41AD50A8D8D8230C0
:1017F00091F49701207E3770C701982F8827990FA1
:10180000990F990F822B932BEF2CFF24E694E694EB
:10181000E694E82AF92A0FEF040F0C0D2FEF260F9C
:101820002A0DCE010E947D0B8E8D882321F08F8D95
:1018300098A10E94FB04EFA1F8A5908189A9892BAA
:101840008083EDA1FEA1908188A980958923808362
:101850001C141D049CF48501101611065CF46F2DF8
:10186000CE010E94CD046E2DCE010E94CD04015008
:101870001109F2CF81E0C81AD108EACFEDA1FEA18B
:10188000908188A9892B8083DF91CF911F910F913F
:10189000FF90EF90DF90CF90BF90AF900895CF92E0
:1018A000DF92EF92FF920F931F93CF93DF93EC01A0
:1018B0006901780188859985681779070CF054C00B
:1018C0002A853B85421753070CF04EC09B012C0D17
:1018D0003D1D821793071CF46C01C61AD70A2FEF1F
:1018E000260F2C0D042FCE010E947D0B8D8D823092
:1018F00091F49701207E3770C701982F8827990FA0
:10190000990F990F822B932BEF2CFF24E694E694EA
:10191000E694E82AF92A8E8D882321F08F8D98A1EC
:101920000E94FB04EFA1F8A5908189A9892B8083EF
:10193000EDA1FEA1908188A9809589238083C1149F
:10194000D10461F06F2DCE010E94CD046E2DCE0129
:101950000E94CD0481E0C81AD108F1CFEDA1FEA10B
:10196000908188A9892B8083DF91CF911F910F915E
:10197000FF90EF90DF90CF900895CF92DF92EF929B
:10198000FF920F931F93CF93DF93EC0169017801CE
:1019900088859985681779070CF055C08A859B85DD
:1019A000481759070CF04FC09A012C0D3D1D8217A6
:1019B00093071CF46C01C41AD50A0FEF040F0C0D29
:1019C000262FCE010E947D0B8D8D823091F49701E0
:1019D000207E3770C701982F8827990F990F990F8C
:1019E000822B932BEF2CFF24E694E694E694E82ACE
:1019F000F92A0F2D8E8D882321F08F8D98A10E94BA
:101A0000FB04EFA1F8A5908189A9892B8083EDA122
:101A1000FEA1908188A9809589238083C114D10477
:101A200061F0602FCE010E94CD046E2DCE010E9488
:101A3000CD0481E0C81AD108F1CFEDA1FEA19081BB
:101A400088A9892B8083DF91CF911F910F91FF90FF
:101A5000EF90DF90CF900895EF92FF920F93CF9386
:101A6000DF93EC01790177FD4BC088859985681774
:101A700079070CF045C057FD43C08A859B85481700
:101A80005907F4F501E0040F21E0260FCE010E9472
:101A90007D0B8E8D882321F08F8D98A10E94FB04F1
:101AA000EFA1F8A5908189A9892B8083EDA1FEA1E2
:101AB000908188A98095892380838D8D823091F4CF
:101AC0009701207E3770C701982F8827990F990FAB
:101AD000990F822B932BEF2CFF24E694E694E69447
:101AE000E82AF92A6F2DCE010E94CD046E2DCE0179
:101AF0000E94CD04EDA1FEA1908188A9892B80834D
:101B0000DF91CF910F91FF90EF9008951F920F9268
:101B10000FB60F9211242F933F934F935F936F93C0
:101B20007F938F939F93AF93BF93EF93FF93809196
:101B3000B900887F803609F49CC068F5883209F4C2
:101B40005BC090F4803109F454C038F4882309F460
:101B5000F6C0883009F44DC0F6C0883109F44CC095
:101B6000803209F45DC0EFC0803409F468C048F4E5
:101B7000803309F455C0883309F0E5C080934602EC
:101B8000D8C0803509F44FC0883509F45DC0883469
:101B900009F0D9C0D6C0883909F4C7C0A8F488377D
:101BA00009F467C038F4883609F463C0803709F453
:101BB00060C0C9C0883809F4B8C0803909F45FC072
:101BC000803809F0C0C05BC0803B09F486C038F49F
:101BD000803A09F466C0883A09F47FC0B4C0803CFA
:101BE00009F4A7C0883C09F4A4C0883B09F48AC062
:101BF000AAC08091430210C0909145028091440296
:101C0000981770F5E091450281E08E0F80934502B0
:101C1000F0E0EE5DFD4F80818093BB0085EC86C0D7
:101C2000809346028EC0E091450281E08E0F809342
:101C300045028091BB00F0E0EE5DFD4F8083909106
:101C40004502809144026EC0E091450281E08E0F12
:101C5000809345028091BB00F0E0EE5DFD4F8083F4
:101C60008091470281116DC081E08093420284EA35
:101C700061C083E0809348021092DC01CFCF809155
:101C8000DC01803208F051C0E091DC0181E08E0F70
:101C90008093DC018091BB00F0E0E454FE4F808330
:101CA000BDCF85EC8093BC00109248028091DC018E
:101CB000803230F4E091DC01F0E0E454FE4F108219
:101CC0006091DC0170E0E091BA01F091BB018CEB16
:101CD00091E009951092DC0136C084E080934802BF
:101CE0001092B9011092B801E091B601F091B701DC
:101CF00009958091B801811105C081E08093B801F8
:101D000010929601E091B90181E08E0F8093B901A4
:101D1000F0E0EA56FE4F80818093BB009091B901BC
:101D20008091B801981708F479CF85E88093BC00BA
:101D30000AC085EC8093BC001092480204C0109247
:101D400046020E94DD07FF91EF91BF91AF919F91F5
:101D50008F917F916F915F914F913F912F910F9054
:101D60000FBE0F901F9018958F929F92AF92BF92C7
:101D7000CF92DF92EF92FF92CF93DF93A0916F0308
:101D8000882311F03A2F01C030E08091700390E079
:101D9000880F991F8B539A4FC0907503D09076038C
:101DA000E0907703F090780340E050E0BA01FC0146
:101DB000C591D49128812A2323130FC04A015B01C6
:101DC0002FEF821A920AA20AB20A4C155D056E051F
:101DD0007F0538F4B501A401EACF342F252FCB01BC
:101DE00004C030E020E080E090E0632F722FDF91AC
:101DF000CF91FF90EF90DF90CF90BF90AF909F90EA
:101E00008F900895EF92FF920F931F93CF93DF93DC
:101E1000EC01623018F08F8588608F876B8B1C8A8D
:101E200080E48D8B80E18E8B80E58F8B61E08C81EF
:101E30000E94EF118D818F3F19F061E00E94EF1138
:101E400061E08E810E94EF117E0187E0E80EF11CB7
:101E500000E010E08F8584FD03C084E090E002C0C4
:101E600088E090E0081719074CF461E0F7018191D0
:101E70007F010E94EF110F5F1F4FECCF8BE39DE0BE
:101E80000197F1F760E08C810E94A31160E08E81E0
:101E90000E94A3118D818F3F19F060E00E94A31171
:101EA0006F8564FD1DC063E0CE010E94700A0BE4E3
:101EB00016E4C8010197F1F763E0CE010E94700AB1
:101EC000C8010197F1F763E0CE010E94700A83E533
:101ED00092E00197F1F762E0CE010E94700A16C00D
:101EE0006062CE010E94F60A8BE496E40197F1F756
:101EF0006F856062CE010E94F60A83E592E0019749
:101F0000F1F76F856062CE010E94F60A6F8560620C
:101F1000CE010E94F60A84E0888B6CE0CE010E941C
:101F2000F60A61E0CE010E94F60A8BE39FE1019779
:101F3000F1F782E0898B66E0CE01DF91CF911F91AE
:101F40000F91FF90EF900C94F60A20912D0322231D
:101F5000D9F010922A0320912B0330912C03309357
:101F60002503209324033093270320932603109204
:101F70002103109220037093230360932203BC017A
:101F800084E193E00C94D008089590914802911157
:101F9000FCCF613208F060E291E0909348029093A8
:101FA00047022FEF2093460210924502260F2093FE
:101FB00044029093430290914302880F892B8093AF
:101FC000430280914202813061F41092420280917A
:101FD00043028093BB008091BC0083FDF8CF85EC69
:101FE00001C085EE8093BC00809148028130E1F30E
:101FF00080914502861710F460914502A2E2B2E09A
:102000002BE432E0F9018E2F821B861718F48D9194
:102010008193F9CF10924A0260934902862F089566
:102020002091210290912002213208F04AC0809133
:1020300048028111FCCF32E03093480231E0309306
:1020400047023FEF3093460210924502209344022C
:10205000A0E0B2E042E252E0FA013E2F341B321718
:1020600018F43D913193F9CF10924302209143022D
:10207000990F922B9093430290914202913061F418
:1020800010924202909143029093BB009091BC0049
:1020900093FDF8CF95EC01C095EE9093BC00909124
:1020A00048029230E1F3909146029F3F79F080918F
:1020B0004602803241F080914602803331F084E064
:1020C00005C081E003C082E001C083E01092FF01FF
:1020D000109221021092FE010895682F88E093E08B
:1020E0000C943F08CF93DF93AB01BC0122E08BE659
:1020F00092E00E942E09EC016AE671E08BE692E024
:102100000E94D0088C0F9D1FDF91CF910895CF9230
:10211000DF92EF92FF920F931F93CF93DF93CDB790
:10212000DEB7C054D1400FB6F894DEBF0FBECDBFAE
:102130000E94651200917103109172032091730344
:10214000309174036B017C01C01AD10AE20AF30AD0
:1021500040EDC41647E0D406E104F10418F4809180
:102160007903BCC06093710370937203809373030F
:102170009093740310926C0310926B0310926A0395
:10218000109269031092680361E080916D030E94D0
:10219000A3116AEF70E080E090E00E942B1261E0F2
:1021A00080916D030E94EF1160E080916D030E94A9
:1021B000A31164E170E080E090E00E942B12F8949B
:1021C00061E080916D030E94A3118BE990E001977B
:1021D000F1F762E080916D030E94EF1183E290E0DD
:1021E0000197F1F780E00E94B40E672B682B692BF2
:1021F00021F41092790378943EC081E00E94B40EDD
:10220000672B682B692BA9F38E010F5F1F4F6E019F
:102210008FEBC81A8EEFD80A780180E00E94B40EC6
:10222000F701608371838283938381E00E94B40EFF
:10223000F7016483758386839783F8E0EF0EF11CC2
:10224000EC14FD0451F7789420E030E0F80140816F
:10225000518162817381C480D580E680F780411509
:1022600051056105710529F0C114D104E104F1049F
:1022700021F41092790380E031C0F90183E0F595F3
:10228000E7958A95E1F7E859FC4F8081880F4C1556
:102290005D056E057F0508F4816080832F5F3F4FE9
:1022A000085F1F4F2832310589F620916C0330E01A
:1022B000409168038091690390E0840F911D4091E3
:1022C0006A03840F911D40916B03840F911D992720
:1022D0002817390771F681E080937903C05CDE4FDF
:1022E0000FB6F894DEBF0FBECDBFDF91CF911F9127
:1022F0000F91FF90EF90DF90CF9008953FB7F89443
:1023000080917F0390918003A0918103B09182031B
:1023100026B5A89B05C02F3F19F00196A11DB11D40
:102320003FBFBA2FA92F982F8827820F911DA11D7B
:10233000B11DBC01CD0142E0660F771F881F991FB8
:102340004A95D1F7089590E0FC01E55FF94F34918B
:10235000FC01ED51FA4F2491FC01E153FA4FE49155
:10236000EE2309F43BC0332339F1333091F038F4D4
:102370003130A9F0323001F584B58F7D12C037308D
:1023800091F03830A1F03430B9F4809180008F7D25
:1023900003C0809180008F77809380000DC084B54A
:1023A0008F7784BD09C08091B0008F7703C0809182
:1023B000B0008F7D8093B000F0E0EE0FFF1FEF5F65
:1023C000F94FA591B4918FB7F894EC91611103C0C6
:1023D00020952E2301C02E2B2C938FBF0895CF93D1
:1023E000DF9390E0FC01ED51FA4F2491FC01E153A1
:1023F000FA4F8491882361F190E0880F991FFC01C6
:10240000E950FA4FC591D491FC01EF5FF94FA591C6
:10241000B491611109C09FB7F894888120958223F7
:102420008883EC912E230BC0623061F49FB7F8943F
:102430003881822F809583238883EC912E2B2C93D7
:102440009FBF06C08FB7F894E8812E2B28838FBFDB
:10245000DF91CF9108958F929F92AF92BF92CF92CA
:10246000DF92EF92FF926B017C010E947E114B0183
:102470005C01C114D104E104F104F1F00E947E1169
:10248000DC01CB0188199909AA09BB09883E934050
:10249000A105B10570F321E0C21AD108E108F108E5
:1024A00088EE880E83E0981EA11CB11CC114D104D3
:1024B000E104F10419F7DDCFFF90EF90DF90CF90AA
:1024C000BF90AF909F908F9008952FB7F894609130
:1024D0007B0370917C0380917D0390917E032FBFDD
:1024E00008951F920F920FB60F9211242F933F93CE
:1024F0008F939F93AF93BF9380917B0390917C03C5
:10250000A0917D03B0917E0330917A0323E0230FE5
:102510002D3720F40196A11DB11D05C026E8230F1B
:102520000296A11DB11D20937A0380937B039093A3
:102530007C03A0937D03B0937E0380917F039091F1
:102540008003A0918103B09182030196A11DB11D6A
:1025500080937F0390938003A0938103B0938203C1
:10256000BF91AF919F918F913F912F910F900FBE8F
:102570000F901F901895CF93DF93CDB7DEB7AF972D
:102580000FB6F894DEBF0FBECDBF789484B58260DD
:1025900084BD84B5816084BD85B5826085BD85B507
:1025A000816085BD80916E00816080936E00109285
:1025B0008100809181008260809381008091810000
:1025C0008160809381008091800081608093800091
:1025D0008091B10084608093B1008091B0008160EF
:1025E0008093B00080917A00846080937A0080911B
:1025F0007A00826080937A0080917A008160809373
:102600007A0080917A00806880937A001092C100ED
:10261000E0917B02F0917C0282E08083E09177027E
:10262000F09178021082E0917902F0917A028FECB9
:10263000808310928302E0917F02F091800286E015
:102640008083E0917D02F0917E02808180618083B1
:10265000E0917D02F0917E02808188608083E0912C
:102660007D02F0917E02808180688083E0917D020E
:10267000F0917E0280818F7D808361E08FE00E94F7
:10268000EF1162E080916D030E94EF1180E398EFFB
:10269000AFEFBFEF8093710390937203A093730326
:1026A000B093740310924A02109249021092FF01F3
:1026B000109221021092480211E0109347021092EA
:1026C000420261E082E10E94A31161E083E10E9485
:1026D000A3118091B9008E7F8093B9008091B900D9
:1026E0008D7F8093B90088E48093B80085E480935F
:1026F000BC001093FE0100E4009320021092FF0141
:10270000109221028EEF90E00E946D100E94101036
:102710006FE070E080E090E00E942B121093FE01C9
:10272000009320021092FF011092210287EE90E0A8
:102730000E946D100E94101061E070E080E490E053
:102740000E94C50F88E093E00E94C107029769F0DC
:1027500064E571E08BE692E00E94D0086AE671E0E1
:102760008BE692E00E94D008FFCF62E088E493E01D
:102770000E94020F6DE671E088E493E00E94D008A9
:10278000109247031092460361E080913E030E943D
:10279000EF1161E080913D030E94EF1180913D03B4
:1027A00090E0FC01E153FA4FE491F0E0EE0FFF1FDF
:1027B000EF5FF94F2591349130933A032093390319
:1027C000FC01ED51FA4FE491E093440380913E0304
:1027D00090E0FC01E153FA4FE491F0E0EE0FFF1FAF
:1027E000EF5FF94F2591349130933C0320933B03E5
:1027F000FC01ED51FA4FE491E093450380913203DF
:10280000882309F439C0FFB6F8948091DD01811165
:1028100027C0E9EDF5E08491EDEEF5E09491E82F25
:10282000F0E0EE0FFF1FE950FA4FA591B491EC9143
:10283000E92321F461E08AE00E94A31161E08AE0CB
:102840000E94EF118CB580618CBD8CB580648CBD0D
:1028500061E08DE00E94EF1161E08BE00E94EF11DA
:102860008091DD018F5F8093DD01FFBE80E5809365
:1028700033031092340349C061E0809141030E9408
:10288000EF1161E0809140030E94EF1180914103BC
:1028900090E0FC01E153FA4FE491F0E0EE0FFF1FEE
:1028A000EF5FF94FA591B491B0933803A09337032C
:1028B000FC01ED51FA4F8491809343032091400332
:1028C00030E0F901E153FA4FE491F0E0EE0FFF1F21
:1028D000EF5FF94F45915491509336034093350380
:1028E000F901ED51FA4F2491209342039C91E82F76
:1028F000E095E923EC93E0913503F0913603908164
:1029000080914203809589238083E0913903F0917F
:102910003A0390818091440380958923808380913C
:102920003F03882321F161E00E94EF1161E0809173
:102930003F030E94A31164EF71E080E090E00E94E9
:102940002B1260E080913F030E94A31164EF71E0BD
:1029500080E090E00E942B1261E080913F030E9492
:10296000A31164EF71E080E090E00E942B12E3E697
:10297000F5E0749004E615E071105AC066E384E156
:1029800093E00E94370B11E01093290368EA84E179
:1029900093E00E94F90A80EA90E090931D038093EF
:1029A0001C0380E890E090931F0380931E03E09146
:1029B0001403F09115030088F189E02D60E070E0C8
:1029C00084E193E0099510932D038FEF9FEF90938F
:1029D0002C0380932B0390932503809324039093DF
:1029E00027038093260382E08093280360E070E051
:1029F0008DE691E00E94A50F60ED77E080E090E029
:102A00000E942B1261E088E493E00E94F60A8BE3B7
:102A10009FE10197F1F785E08093280328EE422E8D
:102A200023E0522E612C712CEE24EA94FE2CC8C2B5
:102A3000F801649184E193E00E94370B7801F2E0A1
:102A4000EF0EF11CF80131960491802F8078682EEA
:102A50000F772701102F115050F0F201649184E19B
:102A600093E00E94F90AFFEF4F1A5F0AF4CFC70103
:102A7000800F911D8C01662089F07C019FEFE91A7F
:102A8000F90AF801649170E06F3F710511F464EF89
:102A900071E080E090E00E942B1287017A946CCF65
:102AA00080916E038B3009F0B1C26091680370E0D1
:102AB00080E090E00E942D1F6093E2017093E3019B
:102AC0008093E4019093E5010E948710882309F424
:102AD000FCC280916E038B3009F0C5C260916A031D
:102AE00070E080E090E00E942D1F4B015C0180921D
:102AF000DE019092DF01A092E001B092E101E1E0FD
:102B000080915B038111E0E0E195F0E0E85BFC4F30
:102B10006489606888E493E00E94F60A22E0B501C7
:102B2000A40188E493E00E942E090E946512A3018B
:102B300092010E942419BA01A9012AE088E493E0D5
:102B40000E94E5088091DE019091DF01A091E001F3
:102B5000B091E1018093E6019093E701A093E80131
:102B6000B093E9018091E2019091E301A091E40129
:102B7000B091E5018093F2019093F301A093F401E9
:102B8000B093F50166E771E08BE692E00E94D00811
:102B90004091DE015091DF016091E0017091E1010F
:102BA00022E08BE692E00E942E096FE771E08BE64F
:102BB00092E00E94D0086091E2017091E30180915F
:102BC000E4019091E5010E94721081E08093FE0182
:102BD000F0E4F09320021092FF011092210285EEA2
:102BE00090E00E946D100E94101062E370E080E09F
:102BF00090E00E942B1263E070E080E490E00E947D
:102C0000C50F9091490280914A029817F1F388E02C
:102C100093E00E94C107382E212C88E093E00E94A7
:102C2000C1078101082B192B88E093E00E94C1079E
:102C3000B80180E090E00E942D1F20E030E04AEFD4
:102C400052E40E948E1F20E030E040E857E30E94EB
:102C50008E1F20E030E040EC50E40E944C1960935D
:102C6000E2017093E3018093E4019093E50181E038
:102C70008093FE0180E4809320021092FF01109265
:102C8000210283EE90E00E946D100E94101062E31A
:102C900070E080E090E00E942B1263E070E080E43E
:102CA00090E00E94C50F9091490280914A029817C6
:102CB000F1F388E093E00E94C107D82EC12C88E090
:102CC00093E00E94C1078601082B192B88E093E04E
:102CD0000E94C107B80180E090E00E942D1F22E50C
:102CE00038EB4FE253E40E948E1F20E030E040E8D2
:102CF00057E30E948E1F26E636E64BE352E40E941D
:102D00004C194B015C016093DE017093DF018093ED
:102D1000E0019093E101E0915B03E23008F0DCC157
:102D2000E150F0E0E85BFC4F6489606888E493E080
:102D30000E94F60A22E0B501A40188E493E00E9413
:102D40002E098091DE019091DF01A091E001B09108
:102D5000E1018093EA019093EB01A093EC01B09321
:102D6000ED018091E2019091E301A091E401B09125
:102D7000E5018093F6019093F701A093F801B093D9
:102D8000F90164E871E08BE692E00E94D00840917E
:102D9000DE015091DF016091E0017091E10122E0DC
:102DA0008BE692E00E942E096FE771E08BE692E0DD
:102DB0000E94D0086091E2017091E3018091E401EA
:102DC0009091E5010E94721062E070E088E490E06A
:102DD0000E94C50F88E093E00E94C107182F88E089
:102DE00093E00E94C1071FA71EA66EA57FA5682BB2
:102DF00084E0759567958A95E1F7072E000C880B9E
:102E0000990B0E942F1F20E030E040E85DE30E9414
:102E10008E1F4B015C01E0915B03E23008F05EC164
:102E2000E150F0E0E85BFC4F64896A5F606888E429
:102E300093E00E94F60A22E0B501A40188E493E041
:102E40000E942E098092EE019092EF01A092F00173
:102E5000B092F1016DE871E08BE692E00E94D0083B
:102E6000C501B4010E9472100E94651219A618A62D
:102E70001BA61AA61DA61CA6A30192010E94241936
:102E8000CA01B9012AE0AE014F5F5F4F0E94901C5A
:102E9000BE016F5F7F4FCE0188960E94860881E059
:102EA00080932D03F0922C03E0922B03F0922503E4
:102EB000E0922403F0922703E0922603E0911403AA
:102EC000F09115030088F189E02D60E070E084E165
:102ED00093E009950E9465121BA21AA21DA21CA2D2
:102EE0001FA21EA2A30192010E942419CA01B901C6
:102EF0002AE0AE014F5F5F4F0E94901CBE016F5FE2
:102F00007F4FCE0182960E94860860E070E08AA121
:102F10009BA10E94A50F8AA19BA10E94F91A609112
:102F2000F2017091F3018091F4019091F5011BA2DF
:102F30001AA21DA21CA21FA21EA28E010F5F1F4F6C
:102F400022E044E00E94701CBC01CE0182960E94E7
:102F5000860868E270E08AA19BA10E94A50F8AA161
:102F60009BA10E94F91A6091F6017091F70180917E
:102F7000F8019091F9011BA21AA21DA21CA21FA286
:102F80001EA222E044E00E94701CBC01CE01829689
:102F90000E94860860E570E08AA19BA10E94A50FAF
:102FA0008AA19BA10E94F91A88A599A50E94F91AE5
:102FB00064E670E080E090E00E942B120E94A5047D
:102FC00060E08FE00E94A31160ED77E080E090E088
:102FD0000E942B1261E08FE00E94A3110E946512F3
:102FE000A30192010E942419BA01A9012AE08BE6EB
:102FF00092E00E94E5086AE671E08BE692E00E94AA
:10300000D0080E94871081114BCD28C08B3030F141
:103010008551823018F56091680370E080E090E09F
:103020000E942D1F20E030E040E853E40E948E1FF4
:103030004B015C016091690370E080E090E00E94C8
:103040002F1F9B01AC01C501B4010E944D192DEC4D
:103050003CEC4CEC5DE30E948E1F2ECD60E070E0F6
:1030600080EC9FE729CD8B3080F18551823068F567
:1030700010916A03612F6F7770E080E090E00E940A
:103080002F1F20E030E040E853E40E948E1F4B01E8
:103090005C0160916B0370E080E090E00E942F1F64
:1030A0009B01AC01C501B4010E944D192DEC3CEC13
:1030B0004CEC5DE30E948E1F4B015C0117FF17CDA6
:1030C000B7FAB094B7F8B09412CD812C912C90EC53
:1030D000A92E9FE7B92E0BCDE1E023CEE1E0A1CEF2
:1030E000EBE6F2E01382128288EE93E0A0E0B0E01B
:1030F00084839583A683B7832AE031E031832083DC
:1031000025EC30E03587248724EC30E037872687AC
:1031100020EC30E0318B208B21EC30E0338B228BA4
:1031200022EC30E0358B248B26EC30E0378B268B7D
:10313000118E128E138E148EE8E0F3E01382128249
:1031400084839583A683B7838AE191E0918380830A
:10315000A8E6B3E08EE015968C93159786E1169657
:103160008C931697E1EFF5E0E4911796EC9317979F
:10317000EDEDF5E0E4911896EC93189740E85EE3E6
:1031800060E070E01D964D935D936D937C93509736
:10319000E0E6F3E080E090E0A0E8BFEB8483958375
:1031A000A683B78380839183A283B383E8E4F3E0AB
:1031B0001382128284E491E09183808382E084838D
:1031C0008FEF858383E0868384E0878385E0808733
:1031D00086E0818787E082871386148615861686A7
:1031E000178661E0CF010E94020FE4E1F3E0138251
:1031F000128220E830E03583248340EA50E0578390
:103200004683158A158614861786168681E0848B78
:103210006FEF7FEF738B628B718B608B868B90E58A
:10322000978F10A29AE091A799E092A798E093A7B0
:10323000868F15A614A68AE291E091838083518738
:103240004087338722870895A1E21A2EAA1BBB1B51
:10325000FD010DC0AA1FBB1FEE1FFF1FA217B30762
:10326000E407F50720F0A21BB30BE40BF50B661F78
:10327000771F881F991F1A9469F76095709580953C
:1032800090959B01AC01BD01CF010895EE0FFF1F8A
:103290000590F491E02D09945058BB27AA270E946D
:1032A00064190C9412200E94042038F00E940B2014
:1032B00020F039F49F3F19F426F40C9401200EF409
:1032C000E095E7FB0C94FB1FE92F0E94232058F3A5
:1032D000BA17620773078407950720F079F4A6F5FB
:1032E0000C9445200EF4E0950B2EBA2FA02D0B0167
:1032F000B90190010C01CA01A0011124FF27591B3B
:1033000099F0593F50F4503E68F11A16F040A22F40
:10331000232F342F4427585FF3CF469537952795B1
:10332000A795F0405395C9F77EF41F16BA0B620BB0
:10333000730B840BBAF09150A1F0FF0FBB1F661FF7
:10334000771F881FC2F70EC0BA0F621F731F841F3A
:1033500048F4879577956795B795F7959E3F08F060
:10336000B0CF9395880F08F09927EE0F9795879522
:1033700008950E94CD190C9412200E940B2058F041
:103380000E94042040F029F45F3F29F00C94FB1FB9
:1033900051110C9446200C9401200E94232068F3C4
:1033A0009923B1F3552391F3951B550BBB27AA27FE
:1033B00062177307840738F09F5F5F4F220F331F38
:1033C000441FAA1FA9F335D00E2E3AF0E0E832D000
:1033D00091505040E695001CCAF72BD0FE2F29D003
:1033E000660F771F881FBB1F261737074807AB07D5
:1033F000B0E809F0BB0B802DBF01FF2793585F4F4A
:103400003AF09E3F510578F00C94FB1F0C94462037
:103410005F3FE4F3983ED4F3869577956795B7952B
:10342000F7959F5FC9F7880F911D9695879597F936
:103430000895E1E0660F771F881FBB1F62177307AF
:103440008407BA0720F0621B730B840BBA0BEE1FC4
:1034500088F7E09508950E942B2088F09F5798F0F8
:10346000B92F9927B751B0F0E1F0660F771F881F89
:10347000991F1AF0BA95C9F714C0B13091F00E94A3
:103480004520B1E008950C944520672F782F8827B8
:10349000B85F39F0B93FCCF3869577956795B395CA
:1034A000D9F73EF490958095709561957F4F8F4F39
:1034B0009F4F08950E946A1F08F48FEF08950E949D
:1034C0006A1F880B990B0895CF93DF938230910583
:1034D00010F482E090E0E0918503F091860320E013
:1034E00030E0C0E0D0E0309711F1408151814817C1
:1034F0005907C0F04817590761F4828193812097DA
:1035000019F09B838A832BC0909386038093850355
:1035100026C02115310519F04217530718F49A01F6
:10352000BE01DF01EF010280F381E02DDCCF211528
:10353000310509F1281B390B2430310590F412961E
:103540008D919C9113976115710521F0FB01938377
:10355000828304C09093860380938503FD01329695
:1035600044C0FD01E20FF31F819391932250310972
:103570002D933C933AC02091830330918403232BF5
:1035800041F4209102013091030130938403209390
:10359000830320910001309101012115310541F48F
:1035A0002DB73EB74091040150910501241B350B06
:1035B000E0918303F0918403E217F307A0F42E1B3C
:1035C0003F0B2817390778F0AC014E5F5F4F241787
:1035D000350748F04E0F5F1F5093840340938303D9
:1035E0008193919302C0E0E0F0E0CF01DF91CF91B1
:1035F00008950F931F93CF93DF93009709F48CC026
:10360000FC01329713821282009185031091860388
:103610000115110581F420813181820F931F2091C2
:103620008303309184032817390779F5F0938403D5
:10363000E093830371C0D80140E050E0AE17BF07AC
:1036400050F412962D913C911397AD01211531053F
:1036500009F1D901F3CF9D01DA013383228360811F
:103660007181860F971F8217930769F4EC012881F7
:103670003981260F371F2E5F3F4F318320838A8188
:103680009B8193838283452B29F4F0938603E093F7
:10369000850342C01396FC93EE931297ED01499176
:1036A00059919E01240F351FE217F30771F48081B1
:1036B0009181840F951F029611969C938E9382811F
:1036C000938113969C938E931297E0E0F0E0D801DB
:1036D00012968D919C911397009719F0F8018C0127
:1036E000F6CF8D919C9198012E5F3F4F820F931FD3
:1036F00020918303309184032817390769F43097A8
:1037000029F4109286031092850302C0138212825C
:103710001093840300938303DF91CF911F910F9146
:103720000895A0E0B0E0E7E9FBE10C945020EC0143
:10373000009721F4CB010E94641AB8C0FC01E60F87
:10374000F71F9C0122503109E217F30708F4ACC0BF
:10375000D9010D911C91119706171707B0F005308C
:10376000110508F49FC0C80104978617970708F44D
:1037700099C002501109061B170B019311936D9309
:103780007C93CF010E94F91A8DC05B01A01AB10A87
:103790004C01800E911EA0918503B091860340E0FC
:1037A00050E0E12CF12C109709F44AC0A815B90596
:1037B000D1F56D907C901197630182E0C80ED11C09
:1037C000CA14DB0480F1A3014A195B096A0182E093
:1037D000C80ED11C1296BC9012971396AC91B5E00E
:1037E000CB16D10440F0B282A38351834083D90128
:1037F0006D937C930AC00E5F1F4FC301800F911F12
:10380000F90191838083EB2DFA2FE114F10431F05B
:10381000D7011396FC93EE93129744C0F09386035E
:10382000E09385033FC08D919C91119748175907EC
:1038300008F4AC017D0112960D90BC91A02DB3CF80
:10384000809183039091840388159905E1F44617CC
:103850005707C8F48091000190910101009741F44D
:103860008DB79EB74091040150910501841B950BC3
:10387000E817F907C8F4F0938403E0938303F90190
:10388000718360830FC0CB010E94641A7C01009792
:1038900059F0A801BE010E94601CCE010E94F91AD5
:1038A000C70104C0CE0102C080E090E0CDB7DEB712
:1038B000EEE00C946C2081E090E0F8940C9483206E
:1038C000FB01DC0102C001900D9241505040D8F73D
:1038D0000895FB01DC0101900D920020E1F70895AD
:1038E000EF920F931F93CF93DF93E80147FD02C040
:1038F00034E001C034E1E42F440FFF0BF7FF03C0B5
:10390000F195E195F109E32E022F2E2FAE010E94D1
:10391000B21CCE01DF91CF911F910F91EF900895CE
:10392000BB27FA01A62F6217710581059105330B9C
:1039300030FB66F0AA27660F771F881F991FAA1F02
:10394000A21710F0A21B63953850A9F7A05DAA3307
:1039500008F0A95DA19336F7B111B1931082CA01A5
:103960000C94181F4F925F926F927F929F92AF922A
:10397000BF92CF92DF92EF92FF920F931F93CF935C
:10398000DF93CDB7DEB729970FB6F894DEBF0FBE31
:10399000CDBF6A01122FB02E2BE3201720F0FF2499
:1039A000F394F00E02C0BCE3FB2E0F2D27E0AE0116
:1039B0004F5F5F4F0E94401EAC018981982F997024
:1039C000913031F0E1FC06C0E0FE06C090E205C097
:1039D0009DE203C09BE201C090E0EE2DE07183FF09
:1039E0003CC0911102C083E001C084E0811718F44B
:1039F000212F281B01C020E0E1110BC0F601822F0E
:103A000030E2882319F031938150FBCFC20ED11CD4
:103A100020E0992329F0D6019C93F60131966F019D
:103A2000C6010396E2FE0AC03EE4D6013C9341E49F
:103A300011964C93119712963C9306C03EE6F60100
:103A4000308341E641833283FC01322F40E233234D
:103A500009F442C041933150FACF82FF44C0911122
:103A600002C083E001C084E0811718F4212F281BD5
:103A700001C020E0E1110BC0F601822F30E2882363
:103A800019F031938150FBCFC20ED11C20E0992355
:103A900029F0D6019C93F60131966F01C601039679
:103AA000E2FE0BC039E4D6013C933EE411963C9310
:103AB000119736E412963C9307C039E6F60130833D
:103AC0003EE6318336E63283FC01322F40E2332377
:103AD00019F041933150FBCFFC01E20FF11D108230
:103AE0008EEF9FEFB7C0F1E0911101C0F0E06F2FB2
:103AF00070E01416150624F49A012F5F3F4F02C0A0
:103B000021E030E0260F371FBB2029F06B2D70E03D
:103B10006F5F7F4F02C060E070E0260F371F612F9C
:103B200070E0261737071CF4121B212F01C020E07C
:103B30003E2D387159F4D601322F60E2332319F04B
:103B40006D933150FBCFC20ED11C20E0FF2331F02A
:103B5000D6019C93B6016F5F7F4F6B01E1110BC0E3
:103B6000F601922F30E3992319F031939150FBCF56
:103B7000C20ED11C20E09F2D940F3A81782F7071D6
:103B8000A72E84FF03C0313309F49150191624F491
:103B9000993018F098E001C091E0E42F852F57FF8D
:103BA00002C0E0E080E06E2F782FE0E0F0E0AEE2CF
:103BB0009A2E3A01691A71082A01461A570A0B2DE2
:103BC00010E01195019511096F3F8FEF780729F4E7
:103BD000D6019C92C60101966C014617570784F0E6
:103BE000661677066CF47F01E40CF51CA1E0B0E0EA
:103BF000AC0FBD1FEA0EFB1ED7011196BC9002C090
:103C000090E3B92E615071093196C60101967C018D
:103C10006017710724F0D601BC926C01D5CF6417F0
:103C2000750741F4363320F4353321F4A11002C076
:103C300081E3B82EF601B082F701822F90E288234B
:103C400019F091938150FBCFF701E20FF11D108223
:103C500080E090E029960FB6F894DEBF0FBECDBF8E
:103C6000DF91CF911F910F91FF90EF90DF90CF9058
:103C7000BF90AF909F907F906F905F904F9008950E
:103C8000283008F027E03327DA01990F311D87FD2E
:103C9000916000966105710539F432602E5F3D93A5
:103CA00030E32A95E1F708959F3F30F080387105A1
:103CB000610509F03C5F3C5F3D93913008F08068FE
:103CC000911DDF93CF931F930F93FF92EF92192FC4
:103CD000987F9695E92F96959695E90FFF27E758D7
:103CE000F94F99273327EE24FF24A701E701059018
:103CF0000894079428F4360FE71EF81E491F511D3B
:103D0000660F771F881F991F0694A1F705900794E7
:103D100028F4E70EF81E491F561FC11D770F881F94
:103D2000991F661F0694A1F70590079428F4F80ED2
:103D3000491F561FC71FD11D880F991F661F771F68
:103D40000694A1F70590079420F4490F561FC71F4A
:103D5000D81F990F661F771F881F0694A9F78491B3
:103D60001095177041F0D695C79557954795F794DC
:103D7000E7941A95C1F7EFE1F6E068941590159174
:103D800035916591959105907FE27395E118F10A5F
:103D9000430B560BC90BD009C0F7E10CF11E431FB2
:103DA000561FC91FD01D7EF4703311F48A95E6CFDB
:103DB000E894015030F0080F0AF40027021708F4C5
:103DC000202F2395022F7A3328F079E37D932A95CB
:103DD000E9F710C07D932A9589F606949795679523
:103DE000379517951794E118F10A430B560BC90B39
:103DF000D00998F023957E9173957A3308F070E39B
:103E00007C932013B8F77E9170617D9330F0839599
:103E100071E37D9370E32A95E1F71124EF90FF9011
:103E20000F911F91CF91DF91992787FD909508956C
:103E3000DC01FC01672F71917723E1F7329704C011
:103E40007C916D9370836291AE17BF07C8F308959C
:103E50000E946A1F08F481E00895E89409C097FB66
:103E60003EF490958095709561957F4F8F4F9F4F51
:103E70009923A9F0F92F96E9BB279395F695879595
:103E800077956795B795F111F8CFFAF4BB0F11F458
:103E900060FF1BC06F5F7F4F8F4F9F4F16C08823FF
:103EA00011F096E911C0772321F09EE8872F762F35
:103EB00005C0662371F096E8862F70E060E02AF076
:103EC0009A95660F771F881FDAF7880F9695879562
:103ED00097F90895990F0008550FAA0BE0E8FEEF37
:103EE00016161706E807F907C0F012161306E407BE
:103EF000F50798F0621B730B840B950B39F40A26B7
:103F000061F0232B242B252B21F408950A2609F494
:103F1000A140A6958FEF811D811D08950E94A11FCC
:103F20000C9412200E94042038F00E940B2020F0F4
:103F3000952311F00C94FB1F0C94012011240C9478
:103F400046200E94232070F3959FC1F3950F50E007
:103F5000551F629FF001729FBB27F00DB11D639F3B
:103F6000AA27F00DB11DAA1F649F6627B00DA11DE1
:103F7000661F829F2227B00DA11D621F739FB00D87
:103F8000A11D621F839FA00D611D221F749F3327F7
:103F9000A00D611D231F849F600D211D822F762F90
:103FA0006A2F11249F5750409AF0F1F088234AF06D
:103FB000EE0FFF1FBB1F661F771F881F91505040D9
:103FC000A9F79E3F510580F00C94FB1F0C944620EE
:103FD0005F3FE4F3983ED4F3869577956795B79560
:103FE000F795E7959F5FC1F7FE2B880F911D96957A
:103FF000879597F9089597F99F6780E870E060E0EA
:1040000008959FEF80EC089500240A941616170671
:1040100018060906089500240A94121613061406B9
:1040200005060895092E0394000C11F4882352F01C
:10403000BB0F40F4BF2B11F460FF04C06F5F7F4FD4
:104040008F4F9F4F089557FD9058440F551F59F0BB
:104050005F3F71F04795880F97FB991F61F09F3F75
:1040600079F087950895121613061406551FF2CF9E
:104070004695F1DF08C0161617061806991FF1CFEE
:1040800086957105610508940895E894BB27662715
:104090007727CB0197F908952F923F924F925F9225
:1040A0006F927F928F929F92AF92BF92CF92DF9248
:1040B000EF92FF920F931F93CF93DF93CDB7DEB7AD
:1040C000CA1BDB0B0FB6F894DEBF0FBECDBF099441
:1040D0002A88398848885F846E847D848C849B8498
:1040E000AA84B984C884DF80EE80FD800C811B81A6
:1040F000AA81B981CE0FD11D0FB6F894DEBF0FBED5
:0A410000CDBFED010895F894FFCF44
:10410A00000087038000000000003C04B803050497
:10411A00E303F7038304000000003F080F08D507F4
:10412A00C107B207B107000000000F05B8032C0D44
:10413A000707BD0C4F0CB806CB0BAF04760BFE0479
:10414A0000000000F00AB8036E616E00696E660036
:10415A006F766600436F756C646E27742066696EAD
:10416A00642073656E736F7221000D0A00537461C7
:10417A007274696E67000944485409543A20000968
:10418A00483A20000948545509543A200009544D28
:06419A005009543A200018
:00000001FF
