:100000000C945D000C9485000C9485000C94850084
:100010000C9485000C9485000C9485000C9485004C
:100020000C9485000C9485000C9485000C9485003C
:100030000C9485000C9485000C9485000C9485002C
:100040000C9425020C9485000C9495020C946F027C
:100050000C9485000C9485000C9485000C9485000C
:100060000C9485000C9485000000000024002700FB
:100070002A0000000000250028002B0004040404CE
:100080000404040402020202020203030303030342
:10009000010204081020408001020408102001021F
:1000A00004081020000000080002010000030407FB
:1000B00000000000000000006F0311241FBECFEFFE
:1000C000D8E0DEBFCDBF11E0A0E0B1E0E2E5F7E0AF
:1000D00002C005900D92A831B107D9F721E0A8E13F
:1000E000B1E001C01D92AE3BB207E1F710E0CDE5F3
:1000F000D0E004C02197FE010E949C03CC35D107BB
:10010000C9F70E94C7020C94A7030C940000E3EB0C
:10011000F0E02491EFE9F0E09491EBE8F0E0E49175
:10012000EE2309F43BC0222339F1233091F038F457
:100130002130A9F0223001F524B52F7D12C02730DF
:1001400091F02830A1F02430B9F4209180002F7D67
:1001500003C0209180002F77209380000DC024B52C
:100160002F7724BD09C02091B0002F7703C02091C4
:10017000B0002F7D2093B000F0E0EE0FFF1FEE588F
:10018000FF4FA591B4912FB7F894EC91811103C062
:1001900090959E2301C09E2B9C932FBF08953FB73F
:1001A000F8948091BA019091BB01A091BC01B091EB
:1001B000BD0126B5A89B05C02F3F19F00196A11DD2
:1001C000B11D3FBFBA2FA92F982F8827820F911DED
:1001D000A11DB11DBC01CD0142E0660F771F881F34
:1001E000991F4A95D1F708958F929F92AF92BF922F
:1001F000CF92DF92EF92FF920E94CF004B015C0101
:1002000084EFC82EDD24D394E12CF12C0E94CF0082
:10021000DC01CB0188199909AA09BB09883E9340E2
:10022000A105B10558F021E0C21AD108E108F10892
:1002300088EE880E83E0981EA11CB11CC114D10465
:10024000E104F10419F7FF90EF90DF90CF90BF9099
:10025000AF909F908F900895CF92DF92EF92FF9290
:100260000F931F93CF93DF936C017A018B01C0E052
:10027000D0E0CE15DF0589F0D8016D918D01D60152
:10028000ED91FC910190F081E02DC6010995892B3B
:1002900011F47E0102C02196ECCFC701DF91CF910E
:1002A0001F910F91FF90EF90DF90CF900895FC0188
:1002B000918D828D981761F0828DDF01A80FB11D9D
:1002C0005D968C91928D9F5F9F73928F90E00895C1
:1002D0008FEF9FEF0895FC01918D828D981731F07B
:1002E000828DE80FF11D858D90E008958FEF9FEFCF
:1002F0000895FC01918D228D892F90E0805C9F4FA5
:10030000821B91098F739927089588E191E00E94DB
:10031000790121E0892B09F420E0822F0895FC0166
:10032000848DDF01A80FB11DA35ABF4F2C91848D7E
:1003300090E001968F739927848FA689B7892C93B3
:10034000A089B1898C9180648C93938D848D98134E
:1003500006C00288F389E02D80818F7D8083089517
:10036000EF92FF920F931F93CF93DF93EC0181E005
:10037000888F9B8D8C8D981305C0E889F9898081C1
:1003800085FD24C0F62E0B8D10E00F5F1F4F0F73FD
:100390001127E02E8C8DE8120CC00FB607FCFACFA7
:1003A000E889F989808185FFF5CFCE010E948F0110
:1003B000F1CF8B8DFE01E80FF11DE35AFF4FF08264
:1003C0000B8FEA89FB898081806207C0EE89FF89F3
:1003D0006083E889F98980818064808381E090E08E
:1003E000DF91CF911F910F91FF90EF900895CF93E0
:1003F000DF93EC01888D8823C9F0EA89FB8980812D
:1004000085FD05C0A889B9898C9186FD0FC00FB6FE
:1004100007FCF5CF808185FFF2CFA889B9898C913F
:1004200085FFEDCFCE010E948F01E7CFDF91CF9105
:10043000089580E090E0892B29F00E9485018111C8
:100440000C94000008950E94A2031F920F920FB611
:100450000F9211242F933F938F939F93AF93BF934A
:100460008091B6019091B701A091B801B091B90106
:100470003091B50123E0230F2D3720F40196A11D03
:10048000B11D05C026E8230F0296A11DB11D2093C2
:10049000B5018093B6019093B701A093B801B093D2
:1004A000B9018091BA019091BB01A091BC01B091BA
:1004B000BD010196A11DB11D8093BA019093BB01AE
:1004C000A093BC01B093BD01BF91AF919F918F915B
:1004D0003F912F910F900FBE0F901F9018951F9274
:1004E0000F920FB60F9211242F933F934F935F9368
:1004F0006F937F938F939F93AF93BF93EF93FF93EC
:1005000088E191E00E948F01FF91EF91BF91AF913F
:100510009F918F917F916F915F914F913F912F911B
:100520000F900FBE0F901F9018951F920F920FB64D
:100530000F9211242F938F939F93EF93FF93E0914A
:100540002801F09129018081E0912E01F0912F0185
:1005500082FD12C09081809131018F5F8F73209155
:100560003201821751F0E0913101F0E0E85EFE4F78
:10057000958F8093310101C08081FF91EF919F9110
:100580008F912F910F900FBE0F901F901895789418
:1005900084B5826084BD84B5816084BD85B5826088
:1005A00085BD85B5816085BD80916E008160809339
:1005B0006E001092810080918100826080938100A2
:1005C00080918100816080938100809180008160B2
:1005D000809380008091B10084608093B10080910D
:1005E000B00081608093B00080917A008460809335
:1005F0007A0080917A00826080937A0080917A00FC
:10060000816080937A0080917A00806880937A007C
:100610001092C100EFE9F0E02491EBE8F0E0849162
:10062000882399F090E0880F991FFC01E859FF4F4B
:10063000A591B491FC01EE58FF4F859194918FB72D
:10064000F894EC91E22BEC938FBFE0912801F091AC
:10065000290182E08083E0912401F091250110823C
:10066000E0912601F09127018FEC808310923001F8
:10067000E0912C01F0912D0186E08083E0912A0128
:10068000F0912B01808180618083E0912A01F091BB
:100690002B01808188608083E0912A01F0912B01F9
:1006A000808180688083E0912A01F0912B01808114
:1006B0008F7D808380E00E9487000E94F40081E0AB
:1006C0000E94870046E050E060E171E088E191E03F
:1006D0000E942C010E94F4000E941902EBCFE8E175
:1006E000F1E01382128288EE93E0A0E0B0E0848310
:1006F0009583A683B78384E091E09183808385EC22
:1007000090E09587848784EC90E09787868780ECDB
:1007100090E0918B808B81EC90E0938B828B82ECCC
:1007200090E0958B848B86EC90E0978B868B118E76
:10073000128E138E148E0895EE0FFF1F0590F49104
:10074000E02D099481E090E0F8940C94A703F894CC
:02075000FFCFD9
:1007520000000000B0012C01790157016B01F70183
:08076200204C69676874000077
:00000001FF
